{
  "transactions": [
    {
      "hash": "0x737b79cbdefdccb3de31e4eb034038775ce5ef0e7ae736ff9879490ab567f044",
      "transactionType": "CALL",
      "contractName": null,
      "contractAddress": "0xa36c64f351f5e6a94401923b8d1af4c6db967fa6",
      "function": "openMarket(address,uint64,uint96,string)",
      "arguments": [
        "0x3c499c542cEF5E3811e1192ce70d8cC03d5c3359",
        "1759787400",
        "200",
        "bp://2025-10-06-riestra-velez"
      ],
      "transaction": {
        "from": "0x1f9dfe3f894fb27da202ffe50a08658c73859230",
        "to": "0xa36c64f351f5e6a94401923b8d1af4c6db967fa6",
        "gas": "0x28fb9",
        "value": "0x0",
        "input": "0xa468ed5e0000000000000000000000003c499c542cef5e3811e1192ce70d8cc03d5c33590000000000000000000000000000000000000000000000000000000068e4398800000000000000000000000000000000000000000000000000000000000000c80000000000000000000000000000000000000000000000000000000000000080000000000000000000000000000000000000000000000000000000000000001d62703a2f2f323032352d31302d30362d726965737472612d76656c657a000000",
        "nonce": "0x1",
        "chainId": "0x89"
      },
      "additionalContracts": [],
      "isFixedGasLimit": false
    },
    {
      "hash": "0x6b9c2dd7c8766249d38d0f930596c8b4b54bcde7de1be5ec5aa3a6c4acbb7579",
      "transactionType": "CALL",
      "contractName": null,
      "contractAddress": "0xa36c64f351f5e6a94401923b8d1af4c6db967fa6",
      "function": "openMarket(address,uint64,uint96,string)",
      "arguments": [
        "0x3c499c542cEF5E3811e1192ce70d8cC03d5c3359",
        "1759794600",
        "200",
        "bp://2025-10-06-racing-ind-rivadavia"
      ],
      "transaction": {
        "from": "0x1f9dfe3f894fb27da202ffe50a08658c73859230",
        "to": "0xa36c64f351f5e6a94401923b8d1af4c6db967fa6",
        "gas": "0x32580",
        "value": "0x0",
        "input": "0xa468ed5e0000000000000000000000003c499c542cef5e3811e1192ce70d8cc03d5c33590000000000000000000000000000000000000000000000000000000068e455a800000000000000000000000000000000000000000000000000000000000000c80000000000000000000000000000000000000000000000000000000000000080000000000000000000000000000000000000000000000000000000000000002462703a2f2f323032352d31302d30362d726163696e672d696e642d72697661646176696100000000000000000000000000000000000000000000000000000000",
        "nonce": "0x2",
        "chainId": "0x89"
      },
      "additionalContracts": [],
      "isFixedGasLimit": false
    },
    {
      "hash": "0xc656ff912d6badab0c325d8e0bea70e4e09b9f94dd9af5e10cff8c9c908d4881",
      "transactionType": "CALL",
      "contractName": null,
      "contractAddress": "0xa36c64f351f5e6a94401923b8d1af4c6db967fa6",
      "function": "openMarket(address,uint64,uint96,string)",
      "arguments": [
        "0x3c499c542cEF5E3811e1192ce70d8cC03d5c3359",
        "1760116800",
        "200",
        "bp://2025-10-10-sanlorenzo-sanmartinsj"
      ],
      "transaction": {
        "from": "0x1f9dfe3f894fb27da202ffe50a08658c73859230",
        "to": "0xa36c64f351f5e6a94401923b8d1af4c6db967fa6",
        "gas": "0x325a2",
        "value": "0x0",
        "input": "0xa468ed5e0000000000000000000000003c499c542cef5e3811e1192ce70d8cc03d5c33590000000000000000000000000000000000000000000000000000000068e9404000000000000000000000000000000000000000000000000000000000000000c80000000000000000000000000000000000000000000000000000000000000080000000000000000000000000000000000000000000000000000000000000002662703a2f2f323032352d31302d31302d73616e6c6f72656e7a6f2d73616e6d617274696e736a0000000000000000000000000000000000000000000000000000",
        "nonce": "0x3",
        "chainId": "0x89"
      },
      "additionalContracts": [],
      "isFixedGasLimit": false
    },
    {
      "hash": "0x5ce63d5a19a4292a3fa8edf586c9a0afbbd189c8788499e6e3b28fcbe546b360",
      "transactionType": "CALL",
      "contractName": null,
      "contractAddress": "0xa36c64f351f5e6a94401923b8d1af4c6db967fa6",
      "function": "openMarket(address,uint64,uint96,string)",
      "arguments": [
        "0x3c499c542cEF5E3811e1192ce70d8cC03d5c3359",
        "1760123100",
        "200",
        "bp://2025-10-10-defensa-argentinos"
      ],
      "transaction": {
        "from": "0x1f9dfe3f894fb27da202ffe50a08658c73859230",
        "to": "0xa36c64f351f5e6a94401923b8d1af4c6db967fa6",
        "gas": "0x32560",
        "value": "0x0",
        "input": "0xa468ed5e0000000000000000000000003c499c542cef5e3811e1192ce70d8cc03d5c33590000000000000000000000000000000000000000000000000000000068e958dc00000000000000000000000000000000000000000000000000000000000000c80000000000000000000000000000000000000000000000000000000000000080000000000000000000000000000000000000000000000000000000000000002262703a2f2f323032352d31302d31302d646566656e73612d617267656e74696e6f73000000000000000000000000000000000000000000000000000000000000",
        "nonce": "0x4",
        "chainId": "0x89"
      },
      "additionalContracts": [],
      "isFixedGasLimit": false
    },
    {
      "hash": "0x18afa3e2733194ac96c92326e184d9d5d05ececd7638336c89eda6904aa17b20",
      "transactionType": "CALL",
      "contractName": null,
      "contractAddress": "0xa36c64f351f5e6a94401923b8d1af4c6db967fa6",
      "function": "openMarket(address,uint64,uint96,string)",
      "arguments": [
        "0x3c499c542cEF5E3811e1192ce70d8cC03d5c3359",
        "1760124900",
        "200",
        "bp://2025-10-10-centralcordoba-union"
      ],
      "transaction": {
        "from": "0x1f9dfe3f894fb27da202ffe50a08658c73859230",
        "to": "0xa36c64f351f5e6a94401923b8d1af4c6db967fa6",
        "gas": "0x32580",
        "value": "0x0",
        "input": "0xa468ed5e0000000000000000000000003c499c542cef5e3811e1192ce70d8cc03d5c33590000000000000000000000000000000000000000000000000000000068e95fe400000000000000000000000000000000000000000000000000000000000000c80000000000000000000000000000000000000000000000000000000000000080000000000000000000000000000000000000000000000000000000000000002462703a2f2f323032352d31302d31302d63656e7472616c636f72646f62612d756e696f6e00000000000000000000000000000000000000000000000000000000",
        "nonce": "0x5",
        "chainId": "0x89"
      },
      "additionalContracts": [],
      "isFixedGasLimit": false
    },
    {
      "hash": "0xaf28e7de91dcabdbfbfdf483e4cb912ff2d8561b176b9e7c4870e23a286d87c0",
      "transactionType": "CALL",
      "contractName": null,
      "contractAddress": "0xa36c64f351f5e6a94401923b8d1af4c6db967fa6",
      "function": "openMarket(address,uint64,uint96,string)",
      "arguments": [
        "0x3c499c542cEF5E3811e1192ce70d8cC03d5c3359",
        "1760131200",
        "200",
        "bp://2025-10-10-newells-tigre"
      ],
      "transaction": {
        "from": "0x1f9dfe3f894fb27da202ffe50a08658c73859230",
        "to": "0xa36c64f351f5e6a94401923b8d1af4c6db967fa6",
        "gas": "0x23376",
        "value": "0x0",
        "input": "0xa468ed5e0000000000000000000000003c499c542cef5e3811e1192ce70d8cc03d5c33590000000000000000000000000000000000000000000000000000000068e9788000000000000000000000000000000000000000000000000000000000000000c80000000000000000000000000000000000000000000000000000000000000080000000000000000000000000000000000000000000000000000000000000001d62703a2f2f323032352d31302d31302d6e6577656c6c732d7469677265000000",
        "nonce": "0x6",
        "chainId": "0x89"
      },
      "additionalContracts": [],
      "isFixedGasLimit": false
    },
    {
      "hash": "0x019341751c985abdf478e2cf75f7f2a6b1dd8b3448ee58d1603515c7c0659cc3",
      "transactionType": "CALL",
      "contractName": null,
      "contractAddress": "0xa36c64f351f5e6a94401923b8d1af4c6db967fa6",
      "function": "openMarket(address,uint64,uint96,string)",
      "arguments": [
        "0x3c499c542cEF5E3811e1192ce70d8cC03d5c3359",
        "1760203200",
        "200",
        "bp://2025-10-11-barracas-boca"
      ],
      "transaction": {
        "from": "0x1f9dfe3f894fb27da202ffe50a08658c73859230",
        "to": "0xa36c64f351f5e6a94401923b8d1af4c6db967fa6",
        "gas": "0x23376",
        "value": "0x0",
        "input": "0xa468ed5e0000000000000000000000003c499c542cef5e3811e1192ce70d8cc03d5c33590000000000000000000000000000000000000000000000000000000068ea91c000000000000000000000000000000000000000000000000000000000000000c80000000000000000000000000000000000000000000000000000000000000080000000000000000000000000000000000000000000000000000000000000001d62703a2f2f323032352d31302d31312d62617272616361732d626f6361000000",
        "nonce": "0x7",
        "chainId": "0x89"
      },
      "additionalContracts": [],
      "isFixedGasLimit": false
    },
    {
      "hash": "0x7950f2ba9915a932df5ee335a1e93f347dce46c8982ef6fe9ef027c188d70312",
      "transactionType": "CALL",
      "contractName": null,
      "contractAddress": "0xa36c64f351f5e6a94401923b8d1af4c6db967fa6",
      "function": "openMarket(address,uint64,uint96,string)",
      "arguments": [
        "0x3c499c542cEF5E3811e1192ce70d8cC03d5c3359",
        "1760211300",
        "200",
        "bp://2025-10-11-gimnasia-talleres"
      ],
      "transaction": {
        "from": "0x1f9dfe3f894fb27da202ffe50a08658c73859230",
        "to": "0xa36c64f351f5e6a94401923b8d1af4c6db967fa6",
        "gas": "0x3254f",
        "value": "0x0",
        "input": "0xa468ed5e0000000000000000000000003c499c542cef5e3811e1192ce70d8cc03d5c33590000000000000000000000000000000000000000000000000000000068eab16400000000000000000000000000000000000000000000000000000000000000c80000000000000000000000000000000000000000000000000000000000000080000000000000000000000000000000000000000000000000000000000000002162703a2f2f323032352d31302d31312d67696d6e617369612d74616c6c6572657300000000000000000000000000000000000000000000000000000000000000",
        "nonce": "0x8",
        "chainId": "0x89"
      },
      "additionalContracts": [],
      "isFixedGasLimit": false
    },
    {
      "hash": "0x73f08f384659ba2d6b5ffea632833637fc33a975a8b59e891191b358ab1e31c9",
      "transactionType": "CALL",
      "contractName": null,
      "contractAddress": "0xa36c64f351f5e6a94401923b8d1af4c6db967fa6",
      "function": "openMarket(address,uint64,uint96,string)",
      "arguments": [
        "0x3c499c542cEF5E3811e1192ce70d8cC03d5c3359",
        "1760219400",
        "200",
        "bp://2025-10-11-banfield-racing"
      ],
      "transaction": {
        "from": "0x1f9dfe3f894fb27da202ffe50a08658c73859230",
        "to": "0xa36c64f351f5e6a94401923b8d1af4c6db967fa6",
        "gas": "0x23397",
        "value": "0x0",
        "input": "0xa468ed5e0000000000000000000000003c499c542cef5e3811e1192ce70d8cc03d5c33590000000000000000000000000000000000000000000000000000000068ead10800000000000000000000000000000000000000000000000000000000000000c80000000000000000000000000000000000000000000000000000000000000080000000000000000000000000000000000000000000000000000000000000001f62703a2f2f323032352d31302d31312d62616e6669656c642d726163696e6700",
        "nonce": "0x9",
        "chainId": "0x89"
      },
      "additionalContracts": [],
      "isFixedGasLimit": false
    },
    {
      "hash": "0x2e8f42081ca543c282b7baa83e970c4634d9afe71006e94c3d0783ef5d1cb152",
      "transactionType": "CALL",
      "contractName": null,
      "contractAddress": "0xa36c64f351f5e6a94401923b8d1af4c6db967fa6",
      "function": "openMarket(address,uint64,uint96,string)",
      "arguments": [
        "0x3c499c542cEF5E3811e1192ce70d8cC03d5c3359",
        "1760227500",
        "200",
        "bp://2025-10-11-belgrano-estudiantes"
      ],
      "transaction": {
        "from": "0x1f9dfe3f894fb27da202ffe50a08658c73859230",
        "to": "0xa36c64f351f5e6a94401923b8d1af4c6db967fa6",
        "gas": "0x32580",
        "value": "0x0",
        "input": "0xa468ed5e0000000000000000000000003c499c542cef5e3811e1192ce70d8cc03d5c33590000000000000000000000000000000000000000000000000000000068eaf0ac00000000000000000000000000000000000000000000000000000000000000c80000000000000000000000000000000000000000000000000000000000000080000000000000000000000000000000000000000000000000000000000000002462703a2f2f323032352d31302d31312d62656c6772616e6f2d657374756469616e74657300000000000000000000000000000000000000000000000000000000",
        "nonce": "0xa",
        "chainId": "0x89"
      },
      "additionalContracts": [],
      "isFixedGasLimit": false
    },
    {
      "hash": "0x50b057ef6bb0f841b0cc1a8537609d65342b4bfaa44ea7ee88bf2d9999b962cd",
      "transactionType": "CALL",
      "contractName": null,
      "contractAddress": "0xa36c64f351f5e6a94401923b8d1af4c6db967fa6",
      "function": "openMarket(address,uint64,uint96,string)",
      "arguments": [
        "0x3c499c542cEF5E3811e1192ce70d8cC03d5c3359",
        "1760227500",
        "200",
        "bp://2025-10-11-velez-central"
      ],
      "transaction": {
        "from": "0x1f9dfe3f894fb27da202ffe50a08658c73859230",
        "to": "0xa36c64f351f5e6a94401923b8d1af4c6db967fa6",
        "gas": "0x23376",
        "value": "0x0",
        "input": "0xa468ed5e0000000000000000000000003c499c542cef5e3811e1192ce70d8cc03d5c33590000000000000000000000000000000000000000000000000000000068eaf0ac00000000000000000000000000000000000000000000000000000000000000c80000000000000000000000000000000000000000000000000000000000000080000000000000000000000000000000000000000000000000000000000000001d62703a2f2f323032352d31302d31312d76656c657a2d63656e7472616c000000",
        "nonce": "0xb",
        "chainId": "0x89"
      },
      "additionalContracts": [],
      "isFixedGasLimit": false
    },
    {
      "hash": "0x1f9a9ddc4d82e621da064365b17e6187cf47313f98b2eea7c9422ae8801285cb",
      "transactionType": "CALL",
      "contractName": null,
      "contractAddress": "0xa36c64f351f5e6a94401923b8d1af4c6db967fa6",
      "function": "openMarket(address,uint64,uint96,string)",
      "arguments": [
        "0x3c499c542cEF5E3811e1192ce70d8cC03d5c3359",
        "1760289600",
        "200",
        "bp://2025-10-12-aldosivi-huracan"
      ],
      "transaction": {
        "from": "0x1f9dfe3f894fb27da202ffe50a08658c73859230",
        "to": "0xa36c64f351f5e6a94401923b8d1af4c6db967fa6",
        "gas": "0x2ab16",
        "value": "0x0",
        "input": "0xa468ed5e0000000000000000000000003c499c542cef5e3811e1192ce70d8cc03d5c33590000000000000000000000000000000000000000000000000000000068ebe34000000000000000000000000000000000000000000000000000000000000000c80000000000000000000000000000000000000000000000000000000000000080000000000000000000000000000000000000000000000000000000000000002062703a2f2f323032352d31302d31322d616c646f736976692d6875726163616e",
        "nonce": "0xc",
        "chainId": "0x89"
      },
      "additionalContracts": [],
      "isFixedGasLimit": false
    },
    {
      "hash": "0x181ce4c8244d362362d0c53b8f548c37037263303258ac07f624baed658cb8de",
      "transactionType": "CALL",
      "contractName": null,
      "contractAddress": "0xa36c64f351f5e6a94401923b8d1af4c6db967fa6",
      "function": "openMarket(address,uint64,uint96,string)",
      "arguments": [
        "0x3c499c542cEF5E3811e1192ce70d8cC03d5c3359",
        "1760297700",
        "200",
        "bp://2025-10-12-indrivadavia-godoycruz"
      ],
      "transaction": {
        "from": "0x1f9dfe3f894fb27da202ffe50a08658c73859230",
        "to": "0xa36c64f351f5e6a94401923b8d1af4c6db967fa6",
        "gas": "0x325a2",
        "value": "0x0",
        "input": "0xa468ed5e0000000000000000000000003c499c542cef5e3811e1192ce70d8cc03d5c33590000000000000000000000000000000000000000000000000000000068ec02e400000000000000000000000000000000000000000000000000000000000000c80000000000000000000000000000000000000000000000000000000000000080000000000000000000000000000000000000000000000000000000000000002662703a2f2f323032352d31302d31322d696e647269766164617669612d676f646f796372757a0000000000000000000000000000000000000000000000000000",
        "nonce": "0xd",
        "chainId": "0x89"
      },
      "additionalContracts": [],
      "isFixedGasLimit": false
    },
    {
      "hash": "0xc888f168be761eecce3210090315774c1743e79ce7cf9e80838608bd09325ebd",
      "transactionType": "CALL",
      "contractName": null,
      "contractAddress": "0xa36c64f351f5e6a94401923b8d1af4c6db967fa6",
      "function": "openMarket(address,uint64,uint96,string)",
      "arguments": [
        "0x3c499c542cEF5E3811e1192ce70d8cC03d5c3359",
        "1760297700",
        "200",
        "bp://2025-10-12-instituto-atleticotucuman"
      ],
      "transaction": {
        "from": "0x1f9dfe3f894fb27da202ffe50a08658c73859230",
        "to": "0xa36c64f351f5e6a94401923b8d1af4c6db967fa6",
        "gas": "0x325d3",
        "value": "0x0",
        "input": "0xa468ed5e0000000000000000000000003c499c542cef5e3811e1192ce70d8cc03d5c33590000000000000000000000000000000000000000000000000000000068ec02e400000000000000000000000000000000000000000000000000000000000000c80000000000000000000000000000000000000000000000000000000000000080000000000000000000000000000000000000000000000000000000000000002962703a2f2f323032352d31302d31322d696e7374697475746f2d61746c657469636f747563756d616e0000000000000000000000000000000000000000000000",
        "nonce": "0xe",
        "chainId": "0x89"
      },
      "additionalContracts": [],
      "isFixedGasLimit": false
    },
    {
      "hash": "0xbe7d2711bab0d177ed79b0713404d90f1da53f0035855e6538a8a43068fe0a2c",
      "transactionType": "CALL",
      "contractName": null,
      "contractAddress": "0xa36c64f351f5e6a94401923b8d1af4c6db967fa6",
      "function": "openMarket(address,uint64,uint96,string)",
      "arguments": [
        "0x3c499c542cEF5E3811e1192ce70d8cC03d5c3359",
        "1760306700",
        "200",
        "bp://2025-10-12-river-sarmiento"
      ],
      "transaction": {
        "from": "0x1f9dfe3f894fb27da202ffe50a08658c73859230",
        "to": "0xa36c64f351f5e6a94401923b8d1af4c6db967fa6",
        "gas": "0x23397",
        "value": "0x0",
        "input": "0xa468ed5e0000000000000000000000003c499c542cef5e3811e1192ce70d8cc03d5c33590000000000000000000000000000000000000000000000000000000068ec260c00000000000000000000000000000000000000000000000000000000000000c80000000000000000000000000000000000000000000000000000000000000080000000000000000000000000000000000000000000000000000000000000001f62703a2f2f323032352d31302d31322d72697665722d7361726d69656e746f00",
        "nonce": "0xf",
        "chainId": "0x89"
      },
      "additionalContracts": [],
      "isFixedGasLimit": false
    },
    {
      "hash": "0x9e32ff57334a961f0f18dde4a93f9ec2d0e13430d91d1cf5b8ccf30a2724281a",
      "transactionType": "CALL",
      "contractName": null,
      "contractAddress": "0xa36c64f351f5e6a94401923b8d1af4c6db967fa6",
      "function": "openMarket(address,uint64,uint96,string)",
      "arguments": [
        "0x3c499c542cEF5E3811e1192ce70d8cC03d5c3359",
        "1760313900",
        "200",
        "bp://2025-10-12-independiente-lanus"
      ],
      "transaction": {
        "from": "0x1f9dfe3f894fb27da202ffe50a08658c73859230",
        "to": "0xa36c64f351f5e6a94401923b8d1af4c6db967fa6",
        "gas": "0x32571",
        "value": "0x0",
        "input": "0xa468ed5e0000000000000000000000003c499c542cef5e3811e1192ce70d8cc03d5c33590000000000000000000000000000000000000000000000000000000068ec422c00000000000000000000000000000000000000000000000000000000000000c80000000000000000000000000000000000000000000000000000000000000080000000000000000000000000000000000000000000000000000000000000002362703a2f2f323032352d31302d31322d696e646570656e6469656e74652d6c616e75730000000000000000000000000000000000000000000000000000000000",
        "nonce": "0x10",
        "chainId": "0x89"
      },
      "additionalContracts": [],
      "isFixedGasLimit": false
    }
  ],
  "receipts": [
    {
      "status": "0x1",
      "cumulativeGasUsed": "0x80c3cc",
      "logs": [
        {
          "address": "0xa36c64f351f5e6a94401923b8d1af4c6db967fa6",
          "topics": [
            "0xd777c7c12d1bd041d6a7622856a576460f479b1fad9bfeaa1f55b92ee6a0c2c4",
            "0x0000000000000000000000000000000000000000000000000000000000000001",
            "0x0000000000000000000000003c499c542cef5e3811e1192ce70d8cc03d5c3359"
          ],
          "data": "0x0000000000000000000000000000000000000000000000000000000068e4398800000000000000000000000000000000000000000000000000000000000000c80000000000000000000000000000000000000000000000000000000000000060000000000000000000000000000000000000000000000000000000000000001d62703a2f2f323032352d31302d30362d726965737472612d76656c657a000000",
          "blockHash": "0x4451d9fec41890e0d5f87352d45019787db605c8128a276a250a8a7d68da30b0",
          "blockNumber": "0x49ba493",
          "transactionHash": "0x737b79cbdefdccb3de31e4eb034038775ce5ef0e7ae736ff9879490ab567f044",
          "transactionIndex": "0x30",
          "logIndex": "0x16a",
          "removed": false
        },
        {
          "address": "0x0000000000000000000000000000000000001010",
          "topics": [
            "0x4dfe1bbbcf077ddc3e01291eea2d5c70c2b422b415d95645b9adcfd678cb1d63",
            "0x0000000000000000000000000000000000000000000000000000000000001010",
            "0x0000000000000000000000001f9dfe3f894fb27da202ffe50a08658c73859230",
            "0x000000000000000000000000a8b52f02108aa5f4b675bdcc973760022d7c6020"
          ],
          "data": "0x000000000000000000000000000000000000000000000000000d2a1de40db190000000000000000000000000000000000000000000000000385a9658fc29dab0000000000000000000000000000000000000000000000085d6c43efab10b0e2c000000000000000000000000000000000000000000000000384d6c3b181c2920000000000000000000000000000000000000000000000085d6d169189518bfbc",
          "blockHash": "0x4451d9fec41890e0d5f87352d45019787db605c8128a276a250a8a7d68da30b0",
          "blockNumber": "0x49ba493",
          "transactionHash": "0x737b79cbdefdccb3de31e4eb034038775ce5ef0e7ae736ff9879490ab567f044",
          "transactionIndex": "0x30",
          "logIndex": "0x16b",
          "removed": false
        }
      ],
      "logsBloom": "0x00000000000000000000000000000000000000000000000000000000000000000000000000000000000000000002000000008000000000000000000000040000000000000040000000000000000000800000000000040000000100000000000000000000000000000000000000400000000000000000000080000000000000000004000000000000000000800000200000000000000000050000100200000000200000000000004000000000000000000000000000000000000000000000004000000000000000002081000000000000000000000004000000100000000040000000000000000000000000000000000000000000000000000000000000100000",
      "type": "0x2",
      "transactionHash": "0x737b79cbdefdccb3de31e4eb034038775ce5ef0e7ae736ff9879490ab567f044",
      "transactionIndex": "0x30",
      "blockHash": "0x4451d9fec41890e0d5f87352d45019787db605c8128a276a250a8a7d68da30b0",
      "blockNumber": "0x49ba493",
      "gasUsed": "0x1dabc",
      "effectiveGasPrice": "0xa9ef5a7c4",
      "from": "0x1f9dfe3f894fb27da202ffe50a08658c73859230",
      "to": "0xa36c64f351f5e6a94401923b8d1af4c6db967fa6",
      "contractAddress": null
    },
    {
      "status": "0x1",
      "cumulativeGasUsed": "0x973a07",
      "logs": [
        {
          "address": "0xa36c64f351f5e6a94401923b8d1af4c6db967fa6",
          "topics": [
            "0xd777c7c12d1bd041d6a7622856a576460f479b1fad9bfeaa1f55b92ee6a0c2c4",
            "0x0000000000000000000000000000000000000000000000000000000000000002",
            "0x0000000000000000000000003c499c542cef5e3811e1192ce70d8cc03d5c3359"
          ],
          "data": "0x0000000000000000000000000000000000000000000000000000000068e455a800000000000000000000000000000000000000000000000000000000000000c80000000000000000000000000000000000000000000000000000000000000060000000000000000000000000000000000000000000000000000000000000002462703a2f2f323032352d31302d30362d726163696e672d696e642d72697661646176696100000000000000000000000000000000000000000000000000000000",
          "blockHash": "0xf6c3dc7b46cd3313d688044dfbf5f1d4c9d827c2603d408740bd7e4f42fcc036",
          "blockNumber": "0x49ba494",
          "transactionHash": "0x6b9c2dd7c8766249d38d0f930596c8b4b54bcde7de1be5ec5aa3a6c4acbb7579",
          "transactionIndex": "0x31",
          "logIndex": "0x1ad",
          "removed": false
        },
        {
          "address": "0x0000000000000000000000000000000000001010",
          "topics": [
            "0x4dfe1bbbcf077ddc3e01291eea2d5c70c2b422b415d95645b9adcfd678cb1d63",
            "0x0000000000000000000000000000000000000000000000000000000000001010",
            "0x0000000000000000000000001f9dfe3f894fb27da202ffe50a08658c73859230",
            "0x000000000000000000000000a8b52f02108aa5f4b675bdcc973760022d7c6020"
          ],
          "data": "0x00000000000000000000000000000000000000000000000000102be8cfacc1d00000000000000000000000000000000000000000000000003846e4396721bec0000000000000000000000000000000000000000000000085dd74abfe615eafc20000000000000000000000000000000000000000000000003836b8509774fcf0000000000000000000000000000000000000000000000085dd84d7e7310b7192",
          "blockHash": "0xf6c3dc7b46cd3313d688044dfbf5f1d4c9d827c2603d408740bd7e4f42fcc036",
          "blockNumber": "0x49ba494",
          "transactionHash": "0x6b9c2dd7c8766249d38d0f930596c8b4b54bcde7de1be5ec5aa3a6c4acbb7579",
          "transactionIndex": "0x31",
          "logIndex": "0x1ae",
          "removed": false
        }
      ],
      "logsBloom": "0x04000000000000000000000000000000000000000000000000000000000000000000000000000000000000000002000000008000000000000000000000000000000000000040000000000000000000800000000000000000000100000000000000000000000000000000000000400000000000000000000080000000000000000004000000000000000000800000200000000000000000050000100200000000200000000000004000000100000000000000000000000000000000000000004000000000000000002081000000000000000000000004000000100000000000000000000000000000000000000000000000000000008000000000000000100000",
      "type": "0x2",
      "transactionHash": "0x6b9c2dd7c8766249d38d0f930596c8b4b54bcde7de1be5ec5aa3a6c4acbb7579",
      "transactionIndex": "0x31",
      "blockHash": "0xf6c3dc7b46cd3313d688044dfbf5f1d4c9d827c2603d408740bd7e4f42fcc036",
      "blockNumber": "0x49ba494",
      "gasUsed": "0x2472c",
      "effectiveGasPrice": "0xa96c65893",
      "from": "0x1f9dfe3f894fb27da202ffe50a08658c73859230",
      "to": "0xa36c64f351f5e6a94401923b8d1af4c6db967fa6",
      "contractAddress": null
    },
    {
      "status": "0x1",
      "cumulativeGasUsed": "0x99814b",
      "logs": [
        {
          "address": "0xa36c64f351f5e6a94401923b8d1af4c6db967fa6",
          "topics": [
            "0xd777c7c12d1bd041d6a7622856a576460f479b1fad9bfeaa1f55b92ee6a0c2c4",
            "0x0000000000000000000000000000000000000000000000000000000000000003",
            "0x0000000000000000000000003c499c542cef5e3811e1192ce70d8cc03d5c3359"
          ],
          "data": "0x0000000000000000000000000000000000000000000000000000000068e9404000000000000000000000000000000000000000000000000000000000000000c80000000000000000000000000000000000000000000000000000000000000060000000000000000000000000000000000000000000000000000000000000002662703a2f2f323032352d31302d31302d73616e6c6f72656e7a6f2d73616e6d617274696e736a0000000000000000000000000000000000000000000000000000",
          "blockHash": "0xf6c3dc7b46cd3313d688044dfbf5f1d4c9d827c2603d408740bd7e4f42fcc036",
          "blockNumber": "0x49ba494",
          "transactionHash": "0xc656ff912d6badab0c325d8e0bea70e4e09b9f94dd9af5e10cff8c9c908d4881",
          "transactionIndex": "0x32",
          "logIndex": "0x1af",
          "removed": false
        },
        {
          "address": "0x0000000000000000000000000000000000001010",
          "topics": [
            "0x4dfe1bbbcf077ddc3e01291eea2d5c70c2b422b415d95645b9adcfd678cb1d63",
            "0x0000000000000000000000000000000000000000000000000000000000001010",
            "0x0000000000000000000000001f9dfe3f894fb27da202ffe50a08658c73859230",
            "0x000000000000000000000000a8b52f02108aa5f4b675bdcc973760022d7c6020"
          ],
          "data": "0x00000000000000000000000000000000000000000000000000102c932fa38670000000000000000000000000000000000000000000000000382ec509c953c07c000000000000000000000000000000000000000000000085dd84d7e7310b7192000000000000000000000000000000000000000000000000381e987699b03a0c000000000000000000000000000000000000000000000085dd95047a60aef802",
          "blockHash": "0xf6c3dc7b46cd3313d688044dfbf5f1d4c9d827c2603d408740bd7e4f42fcc036",
          "blockNumber": "0x49ba494",
          "transactionHash": "0xc656ff912d6badab0c325d8e0bea70e4e09b9f94dd9af5e10cff8c9c908d4881",
          "transactionIndex": "0x32",
          "logIndex": "0x1b0",
          "removed": false
        }
      ],
      "logsBloom": "0x00000000000000000000000000000000000000000000000000000000000000000000000000000000000000000002000000008000020000000000000000000000000000000040000000000000000000800000000000000000000100000000000000000000000000000000000000400000000000000000000080000000000000000004000000000000000000800000200000000000000000050000100200000000200000000000004000000000000000000000000000800000000000000000404000000000000000002081000000000000000000000004000000100000000000000000000000000000000000000000000000000000000000000000000000100000",
      "type": "0x2",
      "transactionHash": "0xc656ff912d6badab0c325d8e0bea70e4e09b9f94dd9af5e10cff8c9c908d4881",
      "transactionIndex": "0x32",
      "blockHash": "0xf6c3dc7b46cd3313d688044dfbf5f1d4c9d827c2603d408740bd7e4f42fcc036",
      "blockNumber": "0x49ba494",
      "gasUsed": "0x24744",
      "effectiveGasPrice": "0xa96c65893",
      "from": "0x1f9dfe3f894fb27da202ffe50a08658c73859230",
      "to": "0xa36c64f351f5e6a94401923b8d1af4c6db967fa6",
      "contractAddress": null
    },
    {
      "status": "0x1",
      "cumulativeGasUsed": "0x9bc85f",
      "logs": [
        {
          "address": "0xa36c64f351f5e6a94401923b8d1af4c6db967fa6",
          "topics": [
            "0xd777c7c12d1bd041d6a7622856a576460f479b1fad9bfeaa1f55b92ee6a0c2c4",
            "0x0000000000000000000000000000000000000000000000000000000000000004",
            "0x0000000000000000000000003c499c542cef5e3811e1192ce70d8cc03d5c3359"
          ],
          "data": "0x0000000000000000000000000000000000000000000000000000000068e958dc00000000000000000000000000000000000000000000000000000000000000c80000000000000000000000000000000000000000000000000000000000000060000000000000000000000000000000000000000000000000000000000000002262703a2f2f323032352d31302d31302d646566656e73612d617267656e74696e6f73000000000000000000000000000000000000000000000000000000000000",
          "blockHash": "0xf6c3dc7b46cd3313d688044dfbf5f1d4c9d827c2603d408740bd7e4f42fcc036",
          "blockNumber": "0x49ba494",
          "transactionHash": "0x5ce63d5a19a4292a3fa8edf586c9a0afbbd189c8788499e6e3b28fcbe546b360",
          "transactionIndex": "0x33",
          "logIndex": "0x1b1",
          "removed": false
        },
        {
          "address": "0x0000000000000000000000000000000000001010",
          "topics": [
            "0x4dfe1bbbcf077ddc3e01291eea2d5c70c2b422b415d95645b9adcfd678cb1d63",
            "0x0000000000000000000000000000000000000000000000000000000000001010",
            "0x0000000000000000000000001f9dfe3f894fb27da202ffe50a08658c73859230",
            "0x000000000000000000000000a8b52f02108aa5f4b675bdcc973760022d7c6020"
          ],
          "data": "0x00000000000000000000000000000000000000000000000000102b3e6fb5fd300000000000000000000000000000000000000000000000003816a4dc08ed7470000000000000000000000000000000000000000000000085dd95047a60aef8020000000000000000000000000000000000000000000000003806799d99377740000000000000000000000000000000000000000000000085dda52fb8d064f532",
          "blockHash": "0xf6c3dc7b46cd3313d688044dfbf5f1d4c9d827c2603d408740bd7e4f42fcc036",
          "blockNumber": "0x49ba494",
          "transactionHash": "0x5ce63d5a19a4292a3fa8edf586c9a0afbbd189c8788499e6e3b28fcbe546b360",
          "transactionIndex": "0x33",
          "logIndex": "0x1b2",
          "removed": false
        }
      ],
      "logsBloom": "0x00000000000000000000000000000000000000000000000000000000000000000000000000000000000000000002000000008000000000000000000000000000000000000040000000000000000000800000000000000000000100000000000008000000000000000000000000400000000000000000000080000000000000000004000000000000000000800000200000000000000000050000100200000000200000000000004000000000000000000000000000000000002000000000004000000000000000002081000000000000000000008004000000100000000000000000000000000000000000000000000000000000000000000000000000100000",
      "type": "0x2",
      "transactionHash": "0x5ce63d5a19a4292a3fa8edf586c9a0afbbd189c8788499e6e3b28fcbe546b360",
      "transactionIndex": "0x33",
      "blockHash": "0xf6c3dc7b46cd3313d688044dfbf5f1d4c9d827c2603d408740bd7e4f42fcc036",
      "blockNumber": "0x49ba494",
      "gasUsed": "0x24714",
      "effectiveGasPrice": "0xa96c65893",
      "from": "0x1f9dfe3f894fb27da202ffe50a08658c73859230",
      "to": "0xa36c64f351f5e6a94401923b8d1af4c6db967fa6",
      "contractAddress": null
    },
    {
      "status": "0x1",
      "cumulativeGasUsed": "0x9e0f8b",
      "logs": [
        {
          "address": "0xa36c64f351f5e6a94401923b8d1af4c6db967fa6",
          "topics": [
            "0xd777c7c12d1bd041d6a7622856a576460f479b1fad9bfeaa1f55b92ee6a0c2c4",
            "0x0000000000000000000000000000000000000000000000000000000000000005",
            "0x0000000000000000000000003c499c542cef5e3811e1192ce70d8cc03d5c3359"
          ],
          "data": "0x0000000000000000000000000000000000000000000000000000000068e95fe400000000000000000000000000000000000000000000000000000000000000c80000000000000000000000000000000000000000000000000000000000000060000000000000000000000000000000000000000000000000000000000000002462703a2f2f323032352d31302d31302d63656e7472616c636f72646f62612d756e696f6e00000000000000000000000000000000000000000000000000000000",
          "blockHash": "0xf6c3dc7b46cd3313d688044dfbf5f1d4c9d827c2603d408740bd7e4f42fcc036",
          "blockNumber": "0x49ba494",
          "transactionHash": "0x18afa3e2733194ac96c92326e184d9d5d05ececd7638336c89eda6904aa17b20",
          "transactionIndex": "0x34",
          "logIndex": "0x1b3",
          "removed": false
        },
        {
          "address": "0x0000000000000000000000000000000000001010",
          "topics": [
            "0x4dfe1bbbcf077ddc3e01291eea2d5c70c2b422b415d95645b9adcfd678cb1d63",
            "0x0000000000000000000000000000000000000000000000000000000000001010",
            "0x0000000000000000000000001f9dfe3f894fb27da202ffe50a08658c73859230",
            "0x000000000000000000000000a8b52f02108aa5f4b675bdcc973760022d7c6020"
          ],
          "data": "0x00000000000000000000000000000000000000000000000000102be8cfacc1d000000000000000000000000000000000000000000000000037fe86aa8db7c3f4000000000000000000000000000000000000000000000085dda52fb8d064f53200000000000000000000000000000000000000000000000037ee5ac1be0b0224000000000000000000000000000000000000000000000085ddb55ba1a011b702",
          "blockHash": "0xf6c3dc7b46cd3313d688044dfbf5f1d4c9d827c2603d408740bd7e4f42fcc036",
          "blockNumber": "0x49ba494",
          "transactionHash": "0x18afa3e2733194ac96c92326e184d9d5d05ececd7638336c89eda6904aa17b20",
          "transactionIndex": "0x34",
          "logIndex": "0x1b4",
          "removed": false
        }
      ],
      "logsBloom": "0x00000000000000000000000000000000000000000000000000000000000000000000000000000000000000000002000000008000000000000000000000000000000010000040000000000000000000800000000000000000000100000000000000000000000000000000000000400000000000000000000080000000000000000004000000000000000000800000201000000800000000050000100200000000200000000000004000000000000000000000000000000000000000000000004000000000000000002081000000000000000000000004000000100000000000000000000000000000000000000000000000000000000000000000000000100000",
      "type": "0x2",
      "transactionHash": "0x18afa3e2733194ac96c92326e184d9d5d05ececd7638336c89eda6904aa17b20",
      "transactionIndex": "0x34",
      "blockHash": "0xf6c3dc7b46cd3313d688044dfbf5f1d4c9d827c2603d408740bd7e4f42fcc036",
      "blockNumber": "0x49ba494",
      "gasUsed": "0x2472c",
      "effectiveGasPrice": "0xa96c65893",
      "from": "0x1f9dfe3f894fb27da202ffe50a08658c73859230",
      "to": "0xa36c64f351f5e6a94401923b8d1af4c6db967fa6",
      "contractAddress": null
    },
    {
      "status": "0x1",
      "cumulativeGasUsed": "0x9fa77b",
      "logs": [
        {
          "address": "0xa36c64f351f5e6a94401923b8d1af4c6db967fa6",
          "topics": [
            "0xd777c7c12d1bd041d6a7622856a576460f479b1fad9bfeaa1f55b92ee6a0c2c4",
            "0x0000000000000000000000000000000000000000000000000000000000000006",
            "0x0000000000000000000000003c499c542cef5e3811e1192ce70d8cc03d5c3359"
          ],
          "data": "0x0000000000000000000000000000000000000000000000000000000068e9788000000000000000000000000000000000000000000000000000000000000000c80000000000000000000000000000000000000000000000000000000000000060000000000000000000000000000000000000000000000000000000000000001d62703a2f2f323032352d31302d31302d6e6577656c6c732d7469677265000000",
          "blockHash": "0xf6c3dc7b46cd3313d688044dfbf5f1d4c9d827c2603d408740bd7e4f42fcc036",
          "blockNumber": "0x49ba494",
          "transactionHash": "0xaf28e7de91dcabdbfbfdf483e4cb912ff2d8561b176b9e7c4870e23a286d87c0",
          "transactionIndex": "0x35",
          "logIndex": "0x1b5",
          "removed": false
        },
        {
          "address": "0x0000000000000000000000000000000000001010",
          "topics": [
            "0x4dfe1bbbcf077ddc3e01291eea2d5c70c2b422b415d95645b9adcfd678cb1d63",
            "0x0000000000000000000000000000000000000000000000000000000000001010",
            "0x0000000000000000000000001f9dfe3f894fb27da202ffe50a08658c73859230",
            "0x000000000000000000000000a8b52f02108aa5f4b675bdcc973760022d7c6020"
          ],
          "data": "0x000000000000000000000000000000000000000000000000000b4fedcdbf724000000000000000000000000000000000000000000000000037e6677aefe9c5b0000000000000000000000000000000000000000000000085ddb55ba1a011b70200000000000000000000000000000000000000000000000037db178d222a5370000000000000000000000000000000000000000000000085ddc0ab8f6dd12942",
          "blockHash": "0xf6c3dc7b46cd3313d688044dfbf5f1d4c9d827c2603d408740bd7e4f42fcc036",
          "blockNumber": "0x49ba494",
          "transactionHash": "0xaf28e7de91dcabdbfbfdf483e4cb912ff2d8561b176b9e7c4870e23a286d87c0",
          "transactionIndex": "0x35",
          "logIndex": "0x1b6",
          "removed": false
        }
      ],
      "logsBloom": "0x00000000000000000000000000000000000000000000000000000000000000000000000000000000000000000002000000008000000400000000000000000000000000000040000000000000000000800000000000000000000100000000000000000000000000000000000000400000000000000000000080000000000000000004000400000000000000800000200000000000000000050000100200000000200000000000004000000000000000000000000000000000000000080000004000000000000000002081000000000000000000000004000000100000000000000000000000000000000000000000000000000000000000000000000000100000",
      "type": "0x2",
      "transactionHash": "0xaf28e7de91dcabdbfbfdf483e4cb912ff2d8561b176b9e7c4870e23a286d87c0",
      "transactionIndex": "0x35",
      "blockHash": "0xf6c3dc7b46cd3313d688044dfbf5f1d4c9d827c2603d408740bd7e4f42fcc036",
      "blockNumber": "0x49ba494",
      "gasUsed": "0x197f0",
      "effectiveGasPrice": "0xa96c65893",
      "from": "0x1f9dfe3f894fb27da202ffe50a08658c73859230",
      "to": "0xa36c64f351f5e6a94401923b8d1af4c6db967fa6",
      "contractAddress": null
    },
    {
      "status": "0x1",
      "cumulativeGasUsed": "0xa13f6b",
      "logs": [
        {
          "address": "0xa36c64f351f5e6a94401923b8d1af4c6db967fa6",
          "topics": [
            "0xd777c7c12d1bd041d6a7622856a576460f479b1fad9bfeaa1f55b92ee6a0c2c4",
            "0x0000000000000000000000000000000000000000000000000000000000000007",
            "0x0000000000000000000000003c499c542cef5e3811e1192ce70d8cc03d5c3359"
          ],
          "data": "0x0000000000000000000000000000000000000000000000000000000068ea91c000000000000000000000000000000000000000000000000000000000000000c80000000000000000000000000000000000000000000000000000000000000060000000000000000000000000000000000000000000000000000000000000001d62703a2f2f323032352d31302d31312d62617272616361732d626f6361000000",
          "blockHash": "0xf6c3dc7b46cd3313d688044dfbf5f1d4c9d827c2603d408740bd7e4f42fcc036",
          "blockNumber": "0x49ba494",
          "transactionHash": "0x019341751c985abdf478e2cf75f7f2a6b1dd8b3448ee58d1603515c7c0659cc3",
          "transactionIndex": "0x36",
          "logIndex": "0x1b7",
          "removed": false
        },
        {
          "address": "0x0000000000000000000000000000000000001010",
          "topics": [
            "0x4dfe1bbbcf077ddc3e01291eea2d5c70c2b422b415d95645b9adcfd678cb1d63",
            "0x0000000000000000000000000000000000000000000000000000000000001010",
            "0x0000000000000000000000001f9dfe3f894fb27da202ffe50a08658c73859230",
            "0x000000000000000000000000a8b52f02108aa5f4b675bdcc973760022d7c6020"
          ],
          "data": "0x000000000000000000000000000000000000000000000000000b4fedcdbf724000000000000000000000000000000000000000000000000037d587d83f2506e0000000000000000000000000000000000000000000000085ddc0ab8f6dd1294200000000000000000000000000000000000000000000000037ca37ea716594a0000000000000000000000000000000000000000000000085ddcbfb7d3b909b82",
          "blockHash": "0xf6c3dc7b46cd3313d688044dfbf5f1d4c9d827c2603d408740bd7e4f42fcc036",
          "blockNumber": "0x49ba494",
          "transactionHash": "0x019341751c985abdf478e2cf75f7f2a6b1dd8b3448ee58d1603515c7c0659cc3",
          "transactionIndex": "0x36",
          "logIndex": "0x1b8",
          "removed": false
        }
      ],
      "logsBloom": "0x00000000000000000000000000000000000000000000000000000000000000000000000000000000000000000002000000009000000000000000000000000000000020000040000000000000000000800000000000000000000100000000000000000000000000000000000000400000000000000000000080000000000000000004000000000000000000800000200000000000000000050000100200000000200000000000004000000000000000000000000000000000000000000000004000000000000000002081000000000000000000000004000000100100000000000000000000000000000000000000000000000000000000000000000000100000",
      "type": "0x2",
      "transactionHash": "0x019341751c985abdf478e2cf75f7f2a6b1dd8b3448ee58d1603515c7c0659cc3",
      "transactionIndex": "0x36",
      "blockHash": "0xf6c3dc7b46cd3313d688044dfbf5f1d4c9d827c2603d408740bd7e4f42fcc036",
      "blockNumber": "0x49ba494",
      "gasUsed": "0x197f0",
      "effectiveGasPrice": "0xa96c65893",
      "from": "0x1f9dfe3f894fb27da202ffe50a08658c73859230",
      "to": "0xa36c64f351f5e6a94401923b8d1af4c6db967fa6",
      "contractAddress": null
    },
    {
      "status": "0x1",
      "cumulativeGasUsed": "0xa38673",
      "logs": [
        {
          "address": "0xa36c64f351f5e6a94401923b8d1af4c6db967fa6",
          "topics": [
            "0xd777c7c12d1bd041d6a7622856a576460f479b1fad9bfeaa1f55b92ee6a0c2c4",
            "0x0000000000000000000000000000000000000000000000000000000000000008",
            "0x0000000000000000000000003c499c542cef5e3811e1192ce70d8cc03d5c3359"
          ],
          "data": "0x0000000000000000000000000000000000000000000000000000000068eab16400000000000000000000000000000000000000000000000000000000000000c80000000000000000000000000000000000000000000000000000000000000060000000000000000000000000000000000000000000000000000000000000002162703a2f2f323032352d31302d31312d67696d6e617369612d74616c6c6572657300000000000000000000000000000000000000000000000000000000000000",
          "blockHash": "0xf6c3dc7b46cd3313d688044dfbf5f1d4c9d827c2603d408740bd7e4f42fcc036",
          "blockNumber": "0x49ba494",
          "transactionHash": "0x7950f2ba9915a932df5ee335a1e93f347dce46c8982ef6fe9ef027c188d70312",
          "transactionIndex": "0x37",
          "logIndex": "0x1b9",
          "removed": false
        },
        {
          "address": "0x0000000000000000000000000000000000001010",
          "topics": [
            "0x4dfe1bbbcf077ddc3e01291eea2d5c70c2b422b415d95645b9adcfd678cb1d63",
            "0x0000000000000000000000000000000000000000000000000000000000001010",
            "0x0000000000000000000000001f9dfe3f894fb27da202ffe50a08658c73859230",
            "0x000000000000000000000000a8b52f02108aa5f4b675bdcc973760022d7c6020"
          ],
          "data": "0x00000000000000000000000000000000000000000000000000102ae93fba9ae000000000000000000000000000000000000000000000000037c4a8358e604810000000000000000000000000000000000000000000000085ddcbfb7d3b909b8200000000000000000000000000000000000000000000000037b47d4c4ea5ad30000000000000000000000000000000000000000000000085dddc26667b4b3662",
          "blockHash": "0xf6c3dc7b46cd3313d688044dfbf5f1d4c9d827c2603d408740bd7e4f42fcc036",
          "blockNumber": "0x49ba494",
          "transactionHash": "0x7950f2ba9915a932df5ee335a1e93f347dce46c8982ef6fe9ef027c188d70312",
          "transactionIndex": "0x37",
          "logIndex": "0x1ba",
          "removed": false
        }
      ],
      "logsBloom": "0x00000000000000000000000000000000000000000000000000000000000000000000000000000000000000000002000000008000000080000000000000000000000000000040000000000000000000800000000000000000000100000000000000000000000000000000000000400000000000000000000080000000000000000084000000000000000000800000200000000000000000050000100200000000200000000000004000000000000000000000000000000000000000000000004040000000000000002081000000000000000000000004000000100000000000000000000000000000000000000000000000000000000000000000000000100000",
      "type": "0x2",
      "transactionHash": "0x7950f2ba9915a932df5ee335a1e93f347dce46c8982ef6fe9ef027c188d70312",
      "transactionIndex": "0x37",
      "blockHash": "0xf6c3dc7b46cd3313d688044dfbf5f1d4c9d827c2603d408740bd7e4f42fcc036",
      "blockNumber": "0x49ba494",
      "gasUsed": "0x24708",
      "effectiveGasPrice": "0xa96c65893",
      "from": "0x1f9dfe3f894fb27da202ffe50a08658c73859230",
      "to": "0xa36c64f351f5e6a94401923b8d1af4c6db967fa6",
      "contractAddress": null
    },
    {
      "status": "0x1",
      "cumulativeGasUsed": "0xa51e7b",
      "logs": [
        {
          "address": "0xa36c64f351f5e6a94401923b8d1af4c6db967fa6",
          "topics": [
            "0xd777c7c12d1bd041d6a7622856a576460f479b1fad9bfeaa1f55b92ee6a0c2c4",
            "0x0000000000000000000000000000000000000000000000000000000000000009",
            "0x0000000000000000000000003c499c542cef5e3811e1192ce70d8cc03d5c3359"
          ],
          "data": "0x0000000000000000000000000000000000000000000000000000000068ead10800000000000000000000000000000000000000000000000000000000000000c80000000000000000000000000000000000000000000000000000000000000060000000000000000000000000000000000000000000000000000000000000001f62703a2f2f323032352d31302d31312d62616e6669656c642d726163696e6700",
          "blockHash": "0xf6c3dc7b46cd3313d688044dfbf5f1d4c9d827c2603d408740bd7e4f42fcc036",
          "blockNumber": "0x49ba494",
          "transactionHash": "0x73f08f384659ba2d6b5ffea632833637fc33a975a8b59e891191b358ab1e31c9",
          "transactionIndex": "0x38",
          "logIndex": "0x1bb",
          "removed": false
        },
        {
          "address": "0x0000000000000000000000000000000000001010",
          "topics": [
            "0x4dfe1bbbcf077ddc3e01291eea2d5c70c2b422b415d95645b9adcfd678cb1d63",
            "0x0000000000000000000000000000000000000000000000000000000000001010",
            "0x0000000000000000000000001f9dfe3f894fb27da202ffe50a08658c73859230",
            "0x000000000000000000000000a8b52f02108aa5f4b675bdcc973760022d7c6020"
          ],
          "data": "0x000000000000000000000000000000000000000000000000000b50982db636e000000000000000000000000000000000000000000000000037ac8a832476be78000000000000000000000000000000000000000000000085dddc26667b4b366200000000000000000000000000000000000000000000000037a139eaf6c08798000000000000000000000000000000000000000000000085dde776fea9016d42",
          "blockHash": "0xf6c3dc7b46cd3313d688044dfbf5f1d4c9d827c2603d408740bd7e4f42fcc036",
          "blockNumber": "0x49ba494",
          "transactionHash": "0x73f08f384659ba2d6b5ffea632833637fc33a975a8b59e891191b358ab1e31c9",
          "transactionIndex": "0x38",
          "logIndex": "0x1bc",
          "removed": false
        }
      ],
      "logsBloom": "0x00000000000000000000000000000000000000000000000000000000000000000000000000000000000000000002000000008000000000000000000000200000000000000040000000000000000000800000000000000000000100000000000000000000000000000000000000400000000000000000000080000000000000000004000000000000000000800000200000001000000000050000100200000000200000000000004000000000000000000000000000000000000000000000004000000000000000002081000000000000000000000004000000100000000000000000000000000000000000000000000000000000000000000000000000900000",
      "type": "0x2",
      "transactionHash": "0x73f08f384659ba2d6b5ffea632833637fc33a975a8b59e891191b358ab1e31c9",
      "transactionIndex": "0x38",
      "blockHash": "0xf6c3dc7b46cd3313d688044dfbf5f1d4c9d827c2603d408740bd7e4f42fcc036",
      "blockNumber": "0x49ba494",
      "gasUsed": "0x19808",
      "effectiveGasPrice": "0xa96c65893",
      "from": "0x1f9dfe3f894fb27da202ffe50a08658c73859230",
      "to": "0xa36c64f351f5e6a94401923b8d1af4c6db967fa6",
      "contractAddress": null
    },
    {
      "status": "0x1",
      "cumulativeGasUsed": "0xa765a7",
      "logs": [
        {
          "address": "0xa36c64f351f5e6a94401923b8d1af4c6db967fa6",
          "topics": [
            "0xd777c7c12d1bd041d6a7622856a576460f479b1fad9bfeaa1f55b92ee6a0c2c4",
            "0x000000000000000000000000000000000000000000000000000000000000000a",
            "0x0000000000000000000000003c499c542cef5e3811e1192ce70d8cc03d5c3359"
          ],
          "data": "0x0000000000000000000000000000000000000000000000000000000068eaf0ac00000000000000000000000000000000000000000000000000000000000000c80000000000000000000000000000000000000000000000000000000000000060000000000000000000000000000000000000000000000000000000000000002462703a2f2f323032352d31302d31312d62656c6772616e6f2d657374756469616e74657300000000000000000000000000000000000000000000000000000000",
          "blockHash": "0xf6c3dc7b46cd3313d688044dfbf5f1d4c9d827c2603d408740bd7e4f42fcc036",
          "blockNumber": "0x49ba494",
          "transactionHash": "0x2e8f42081ca543c282b7baa83e970c4634d9afe71006e94c3d0783ef5d1cb152",
          "transactionIndex": "0x39",
          "logIndex": "0x1bd",
          "removed": false
        },
        {
          "address": "0x0000000000000000000000000000000000001010",
          "topics": [
            "0x4dfe1bbbcf077ddc3e01291eea2d5c70c2b422b415d95645b9adcfd678cb1d63",
            "0x0000000000000000000000000000000000000000000000000000000000001010",
            "0x0000000000000000000000001f9dfe3f894fb27da202ffe50a08658c73859230",
            "0x000000000000000000000000a8b52f02108aa5f4b675bdcc973760022d7c6020"
          ],
          "data": "0x00000000000000000000000000000000000000000000000000102be8cfacc1d0000000000000000000000000000000000000000000000000379ba9e25119b1e0000000000000000000000000000000000000000000000085dde776fea9016d42000000000000000000000000000000000000000000000000378b7df9816cf010000000000000000000000000000000000000000000000085ddf7a2e778ae2f12",
          "blockHash": "0xf6c3dc7b46cd3313d688044dfbf5f1d4c9d827c2603d408740bd7e4f42fcc036",
          "blockNumber": "0x49ba494",
          "transactionHash": "0x2e8f42081ca543c282b7baa83e970c4634d9afe71006e94c3d0783ef5d1cb152",
          "transactionIndex": "0x39",
          "logIndex": "0x1be",
          "removed": false
        }
      ],
      "logsBloom": "0x00000000000000000000000000000000000000000000000000000000000000000000000000000000000000000002000000008000040000000020000000000000000000000040000000000000000000800000000000000000000100000000000000000000000000000000000000400000000000000000000080000000000000000004000000000000010000800000200000000000000000050000100200000000200000000000004000000000000000000000000000000000000000000000004000000000000000002081000000000000000000000004000000100000000000000000000000000000000000000000000000000000000000000000000000100000",
      "type": "0x2",
      "transactionHash": "0x2e8f42081ca543c282b7baa83e970c4634d9afe71006e94c3d0783ef5d1cb152",
      "transactionIndex": "0x39",
      "blockHash": "0xf6c3dc7b46cd3313d688044dfbf5f1d4c9d827c2603d408740bd7e4f42fcc036",
      "blockNumber": "0x49ba494",
      "gasUsed": "0x2472c",
      "effectiveGasPrice": "0xa96c65893",
      "from": "0x1f9dfe3f894fb27da202ffe50a08658c73859230",
      "to": "0xa36c64f351f5e6a94401923b8d1af4c6db967fa6",
      "contractAddress": null
    },
    {
      "status": "0x1",
      "cumulativeGasUsed": "0xa8fd97",
      "logs": [
        {
          "address": "0xa36c64f351f5e6a94401923b8d1af4c6db967fa6",
          "topics": [
            "0xd777c7c12d1bd041d6a7622856a576460f479b1fad9bfeaa1f55b92ee6a0c2c4",
            "0x000000000000000000000000000000000000000000000000000000000000000b",
            "0x0000000000000000000000003c499c542cef5e3811e1192ce70d8cc03d5c3359"
          ],
          "data": "0x0000000000000000000000000000000000000000000000000000000068eaf0ac00000000000000000000000000000000000000000000000000000000000000c80000000000000000000000000000000000000000000000000000000000000060000000000000000000000000000000000000000000000000000000000000001d62703a2f2f323032352d31302d31312d76656c657a2d63656e7472616c000000",
          "blockHash": "0xf6c3dc7b46cd3313d688044dfbf5f1d4c9d827c2603d408740bd7e4f42fcc036",
          "blockNumber": "0x49ba494",
          "transactionHash": "0x50b057ef6bb0f841b0cc1a8537609d65342b4bfaa44ea7ee88bf2d9999b962cd",
          "transactionIndex": "0x3a",
          "logIndex": "0x1bf",
          "removed": false
        },
        {
          "address": "0x0000000000000000000000000000000000001010",
          "topics": [
            "0x4dfe1bbbcf077ddc3e01291eea2d5c70c2b422b415d95645b9adcfd678cb1d63",
            "0x0000000000000000000000000000000000000000000000000000000000001010",
            "0x0000000000000000000000001f9dfe3f894fb27da202ffe50a08658c73859230",
            "0x000000000000000000000000a8b52f02108aa5f4b675bdcc973760022d7c6020"
          ],
          "data": "0x000000000000000000000000000000000000000000000000000b4fedcdbf724000000000000000000000000000000000000000000000000037838ab2b34bb39c000000000000000000000000000000000000000000000085ddf7a2e778ae2f1200000000000000000000000000000000000000000000000037783ac4e58c415c000000000000000000000000000000000000000000000085de02f2d5466da152",
          "blockHash": "0xf6c3dc7b46cd3313d688044dfbf5f1d4c9d827c2603d408740bd7e4f42fcc036",
          "blockNumber": "0x49ba494",
          "transactionHash": "0x50b057ef6bb0f841b0cc1a8537609d65342b4bfaa44ea7ee88bf2d9999b962cd",
          "transactionIndex": "0x3a",
          "logIndex": "0x1c0",
          "removed": false
        }
      ],
      "logsBloom": "0x00000000000000000000004000000000000000000000000000000000000000000000000000000000000000000002000000008000000000000000000000000000000000000040000000000000000000800000000000000000000100000000000000000000000000000000000000400000000000000000000080000000000000000004000000000000000000800000200000000000000000050000100200000000200000000000004000000000000000000000000000000000000000000000004000000000000000002081000000000000002000000004000000100000000000000000000000000000000000000000000000000000000000040000000000100000",
      "type": "0x2",
      "transactionHash": "0x50b057ef6bb0f841b0cc1a8537609d65342b4bfaa44ea7ee88bf2d9999b962cd",
      "transactionIndex": "0x3a",
      "blockHash": "0xf6c3dc7b46cd3313d688044dfbf5f1d4c9d827c2603d408740bd7e4f42fcc036",
      "blockNumber": "0x49ba494",
      "gasUsed": "0x197f0",
      "effectiveGasPrice": "0xa96c65893",
      "from": "0x1f9dfe3f894fb27da202ffe50a08658c73859230",
      "to": "0xa36c64f351f5e6a94401923b8d1af4c6db967fa6",
      "contractAddress": null
    },
    {
      "status": "0x1",
      "cumulativeGasUsed": "0xaaec23",
      "logs": [
        {
          "address": "0xa36c64f351f5e6a94401923b8d1af4c6db967fa6",
          "topics": [
            "0xd777c7c12d1bd041d6a7622856a576460f479b1fad9bfeaa1f55b92ee6a0c2c4",
            "0x000000000000000000000000000000000000000000000000000000000000000c",
            "0x0000000000000000000000003c499c542cef5e3811e1192ce70d8cc03d5c3359"
          ],
          "data": "0x0000000000000000000000000000000000000000000000000000000068ebe34000000000000000000000000000000000000000000000000000000000000000c80000000000000000000000000000000000000000000000000000000000000060000000000000000000000000000000000000000000000000000000000000002062703a2f2f323032352d31302d31322d616c646f736976692d6875726163616e",
          "blockHash": "0xf6c3dc7b46cd3313d688044dfbf5f1d4c9d827c2603d408740bd7e4f42fcc036",
          "blockNumber": "0x49ba494",
          "transactionHash": "0x1f9a9ddc4d82e621da064365b17e6187cf47313f98b2eea7c9422ae8801285cb",
          "transactionIndex": "0x3b",
          "logIndex": "0x1c1",
          "removed": false
        },
        {
          "address": "0x0000000000000000000000000000000000001010",
          "topics": [
            "0x4dfe1bbbcf077ddc3e01291eea2d5c70c2b422b415d95645b9adcfd678cb1d63",
            "0x0000000000000000000000000000000000000000000000000000000000001010",
            "0x0000000000000000000000001f9dfe3f894fb27da202ffe50a08658c73859230",
            "0x000000000000000000000000a8b52f02108aa5f4b675bdcc973760022d7c6020"
          ],
          "data": "0x000000000000000000000000000000000000000000000000000db6c3c71958500000000000000000000000000000000000000000000000003772ab100286f4cc000000000000000000000000000000000000000000000085de02f2d5466da1520000000000000000000000000000000000000000000000003764f44c3b6d9c7c000000000000000000000000000000000000000000000085de10a9990d86f9a2",
          "blockHash": "0xf6c3dc7b46cd3313d688044dfbf5f1d4c9d827c2603d408740bd7e4f42fcc036",
          "blockNumber": "0x49ba494",
          "transactionHash": "0x1f9a9ddc4d82e621da064365b17e6187cf47313f98b2eea7c9422ae8801285cb",
          "transactionIndex": "0x3b",
          "logIndex": "0x1c2",
          "removed": false
        }
      ],
      "logsBloom": "0x00000000000000000000000000000000000002000000000000000000000000000000000000000200000000000002000000008000000000000000000000000000000000000040000000000000000000800000000000000000000100000000000000000000000000000000000000400000000000000000000080000000000000000004000000000000000000800000200000000000000000050000100200000000200000000000004000000000000000000000000000000000000000000000004000000000000000002081000000000000000000000004000000100000000000200000000000000000000000000000000000000000000000000000000000100000",
      "type": "0x2",
      "transactionHash": "0x1f9a9ddc4d82e621da064365b17e6187cf47313f98b2eea7c9422ae8801285cb",
      "transactionIndex": "0x3b",
      "blockHash": "0xf6c3dc7b46cd3313d688044dfbf5f1d4c9d827c2603d408740bd7e4f42fcc036",
      "blockNumber": "0x49ba494",
      "gasUsed": "0x1ee8c",
      "effectiveGasPrice": "0xa96c65893",
      "from": "0x1f9dfe3f894fb27da202ffe50a08658c73859230",
      "to": "0xa36c64f351f5e6a94401923b8d1af4c6db967fa6",
      "contractAddress": null
    },
    {
      "status": "0x1",
      "cumulativeGasUsed": "0xad3367",
      "logs": [
        {
          "address": "0xa36c64f351f5e6a94401923b8d1af4c6db967fa6",
          "topics": [
            "0xd777c7c12d1bd041d6a7622856a576460f479b1fad9bfeaa1f55b92ee6a0c2c4",
            "0x000000000000000000000000000000000000000000000000000000000000000d",
            "0x0000000000000000000000003c499c542cef5e3811e1192ce70d8cc03d5c3359"
          ],
          "data": "0x0000000000000000000000000000000000000000000000000000000068ec02e400000000000000000000000000000000000000000000000000000000000000c80000000000000000000000000000000000000000000000000000000000000060000000000000000000000000000000000000000000000000000000000000002662703a2f2f323032352d31302d31322d696e647269766164617669612d676f646f796372757a0000000000000000000000000000000000000000000000000000",
          "blockHash": "0xf6c3dc7b46cd3313d688044dfbf5f1d4c9d827c2603d408740bd7e4f42fcc036",
          "blockNumber": "0x49ba494",
          "transactionHash": "0x181ce4c8244d362362d0c53b8f548c37037263303258ac07f624baed658cb8de",
          "transactionIndex": "0x3c",
          "logIndex": "0x1c3",
          "removed": false
        },
        {
          "address": "0x0000000000000000000000000000000000001010",
          "topics": [
            "0x4dfe1bbbcf077ddc3e01291eea2d5c70c2b422b415d95645b9adcfd678cb1d63",
            "0x0000000000000000000000000000000000000000000000000000000000001010",
            "0x0000000000000000000000001f9dfe3f894fb27da202ffe50a08658c73859230",
            "0x000000000000000000000000a8b52f02108aa5f4b675bdcc973760022d7c6020"
          ],
          "data": "0x00000000000000000000000000000000000000000000000000102c932fa38670000000000000000000000000000000000000000000000000375e3652cf22da68000000000000000000000000000000000000000000000085de10a9990d86f9a2000000000000000000000000000000000000000000000000374e09bf9f7f53f8000000000000000000000000000000000000000000000085de20d62c3d2a8012",
          "blockHash": "0xf6c3dc7b46cd3313d688044dfbf5f1d4c9d827c2603d408740bd7e4f42fcc036",
          "blockNumber": "0x49ba494",
          "transactionHash": "0x181ce4c8244d362362d0c53b8f548c37037263303258ac07f624baed658cb8de",
          "transactionIndex": "0x3c",
          "logIndex": "0x1c4",
          "removed": false
        }
      ],
      "logsBloom": "0x00000000000000000040000000000000000000000000000000000000000000000000000000000000000000000002000000008000000000000000000000000000000000000040000000000000000000800002000000000000000100000000000000000000000000000000000000400000000000000000000080000000000000000004000000000000000000800000200000000000000000050000100200000000200000000000004000000000000000000000000000000000000000000000004000000000000000002081000000000000000000000004000000100000000000020000000000000000000000000000000000000000000000000000000000100000",
      "type": "0x2",
      "transactionHash": "0x181ce4c8244d362362d0c53b8f548c37037263303258ac07f624baed658cb8de",
      "transactionIndex": "0x3c",
      "blockHash": "0xf6c3dc7b46cd3313d688044dfbf5f1d4c9d827c2603d408740bd7e4f42fcc036",
      "blockNumber": "0x49ba494",
      "gasUsed": "0x24744",
      "effectiveGasPrice": "0xa96c65893",
      "from": "0x1f9dfe3f894fb27da202ffe50a08658c73859230",
      "to": "0xa36c64f351f5e6a94401923b8d1af4c6db967fa6",
      "contractAddress": null
    },
    {
      "status": "0x1",
      "cumulativeGasUsed": "0xaf7acf",
      "logs": [
        {
          "address": "0xa36c64f351f5e6a94401923b8d1af4c6db967fa6",
          "topics": [
            "0xd777c7c12d1bd041d6a7622856a576460f479b1fad9bfeaa1f55b92ee6a0c2c4",
            "0x000000000000000000000000000000000000000000000000000000000000000e",
            "0x0000000000000000000000003c499c542cef5e3811e1192ce70d8cc03d5c3359"
          ],
          "data": "0x0000000000000000000000000000000000000000000000000000000068ec02e400000000000000000000000000000000000000000000000000000000000000c80000000000000000000000000000000000000000000000000000000000000060000000000000000000000000000000000000000000000000000000000000002962703a2f2f323032352d31302d31322d696e7374697475746f2d61746c657469636f747563756d616e0000000000000000000000000000000000000000000000",
          "blockHash": "0xf6c3dc7b46cd3313d688044dfbf5f1d4c9d827c2603d408740bd7e4f42fcc036",
          "blockNumber": "0x49ba494",
          "transactionHash": "0xc888f168be761eecce3210090315774c1743e79ce7cf9e80838608bd09325ebd",
          "transactionIndex": "0x3d",
          "logIndex": "0x1c5",
          "removed": false
        },
        {
          "address": "0x0000000000000000000000000000000000001010",
          "topics": [
            "0x4dfe1bbbcf077ddc3e01291eea2d5c70c2b422b415d95645b9adcfd678cb1d63",
            "0x0000000000000000000000000000000000000000000000000000000000001010",
            "0x0000000000000000000000001f9dfe3f894fb27da202ffe50a08658c73859230",
            "0x000000000000000000000000a8b52f02108aa5f4b675bdcc973760022d7c6020"
          ],
          "data": "0x00000000000000000000000000000000000000000000000000102d92bf95ad60000000000000000000000000000000000000000000000000374616250ebc8e5c000000000000000000000000000000000000000000000085de20d62c3d2a80120000000000000000000000000000000000000000000000003735e8924f26e0fc000000000000000000000000000000000000000000000085de3103befcc02d72",
          "blockHash": "0xf6c3dc7b46cd3313d688044dfbf5f1d4c9d827c2603d408740bd7e4f42fcc036",
          "blockNumber": "0x49ba494",
          "transactionHash": "0xc888f168be761eecce3210090315774c1743e79ce7cf9e80838608bd09325ebd",
          "transactionIndex": "0x3d",
          "logIndex": "0x1c6",
          "removed": false
        }
      ],
      "logsBloom": "0x00000000000000000000000000000000000000000000000000000000000000000000000000000000000000000002000000008000000000000000000000000000000000000040000800000000000000800000000000000000000100000000000000000000000000000000000000400000000000000000000080000000000000000004000000000000000000800000200008000000000000050000100200000000200000000000004000000000000000000000000000000020000000000000004000000000000000002081000000000000000000000004000000100000000000000000000000000000000000000000000000000000000000000000000000100000",
      "type": "0x2",
      "transactionHash": "0xc888f168be761eecce3210090315774c1743e79ce7cf9e80838608bd09325ebd",
      "transactionIndex": "0x3d",
      "blockHash": "0xf6c3dc7b46cd3313d688044dfbf5f1d4c9d827c2603d408740bd7e4f42fcc036",
      "blockNumber": "0x49ba494",
      "gasUsed": "0x24768",
      "effectiveGasPrice": "0xa96c65893",
      "from": "0x1f9dfe3f894fb27da202ffe50a08658c73859230",
      "to": "0xa36c64f351f5e6a94401923b8d1af4c6db967fa6",
      "contractAddress": null
    },
    {
      "status": "0x1",
      "cumulativeGasUsed": "0xb112d7",
      "logs": [
        {
          "address": "0xa36c64f351f5e6a94401923b8d1af4c6db967fa6",
          "topics": [
            "0xd777c7c12d1bd041d6a7622856a576460f479b1fad9bfeaa1f55b92ee6a0c2c4",
            "0x000000000000000000000000000000000000000000000000000000000000000f",
            "0x0000000000000000000000003c499c542cef5e3811e1192ce70d8cc03d5c3359"
          ],
          "data": "0x0000000000000000000000000000000000000000000000000000000068ec260c00000000000000000000000000000000000000000000000000000000000000c80000000000000000000000000000000000000000000000000000000000000060000000000000000000000000000000000000000000000000000000000000001f62703a2f2f323032352d31302d31322d72697665722d7361726d69656e746f00",
          "blockHash": "0xf6c3dc7b46cd3313d688044dfbf5f1d4c9d827c2603d408740bd7e4f42fcc036",
          "blockNumber": "0x49ba494",
          "transactionHash": "0xbe7d2711bab0d177ed79b0713404d90f1da53f0035855e6538a8a43068fe0a2c",
          "transactionIndex": "0x3e",
          "logIndex": "0x1c7",
          "removed": false
        },
        {
          "address": "0x0000000000000000000000000000000000001010",
          "topics": [
            "0x4dfe1bbbcf077ddc3e01291eea2d5c70c2b422b415d95645b9adcfd678cb1d63",
            "0x0000000000000000000000000000000000000000000000000000000000001010",
            "0x0000000000000000000000001f9dfe3f894fb27da202ffe50a08658c73859230",
            "0x000000000000000000000000a8b52f02108aa5f4b675bdcc973760022d7c6020"
          ],
          "data": "0x000000000000000000000000000000000000000000000000000b50982db636e0000000000000000000000000000000000000000000000000372df47a1a71cda4000000000000000000000000000000000000000000000085de3103befcc02d720000000000000000000000000000000000000000000000003722a3e1ecbb96c4000000000000000000000000000000000000000000000085de3c54572a766452",
          "blockHash": "0xf6c3dc7b46cd3313d688044dfbf5f1d4c9d827c2603d408740bd7e4f42fcc036",
          "blockNumber": "0x49ba494",
          "transactionHash": "0xbe7d2711bab0d177ed79b0713404d90f1da53f0035855e6538a8a43068fe0a2c",
          "transactionIndex": "0x3e",
          "logIndex": "0x1c8",
          "removed": false
        }
      ],
      "logsBloom": "0x00000000000000000000000000000000000000000000000000000000000000000000000000000000000000000002000000008000000000000000000000000000000000000040000000000000000000800000000000000000000100000002000000000000000000000000000000400000000000000000000080000000000000000004000000000800000000800000200000000000000000050000100200000000200000000000004000000000000000000000000000000000000000000000004000000000000000002081000000000000000000000004000000100000000000000000000200000000000000000000000000000000000000000000000000100000",
      "type": "0x2",
      "transactionHash": "0xbe7d2711bab0d177ed79b0713404d90f1da53f0035855e6538a8a43068fe0a2c",
      "transactionIndex": "0x3e",
      "blockHash": "0xf6c3dc7b46cd3313d688044dfbf5f1d4c9d827c2603d408740bd7e4f42fcc036",
      "blockNumber": "0x49ba494",
      "gasUsed": "0x19808",
      "effectiveGasPrice": "0xa96c65893",
      "from": "0x1f9dfe3f894fb27da202ffe50a08658c73859230",
      "to": "0xa36c64f351f5e6a94401923b8d1af4c6db967fa6",
      "contractAddress": null
    },
    {
      "status": "0x1",
      "cumulativeGasUsed": "0xb359f7",
      "logs": [
        {
          "address": "0xa36c64f351f5e6a94401923b8d1af4c6db967fa6",
          "topics": [
            "0xd777c7c12d1bd041d6a7622856a576460f479b1fad9bfeaa1f55b92ee6a0c2c4",
            "0x0000000000000000000000000000000000000000000000000000000000000010",
            "0x0000000000000000000000003c499c542cef5e3811e1192ce70d8cc03d5c3359"
          ],
          "data": "0x0000000000000000000000000000000000000000000000000000000068ec422c00000000000000000000000000000000000000000000000000000000000000c80000000000000000000000000000000000000000000000000000000000000060000000000000000000000000000000000000000000000000000000000000002362703a2f2f323032352d31302d31322d696e646570656e6469656e74652d6c616e75730000000000000000000000000000000000000000000000000000000000",
          "blockHash": "0xf6c3dc7b46cd3313d688044dfbf5f1d4c9d827c2603d408740bd7e4f42fcc036",
          "blockNumber": "0x49ba494",
          "transactionHash": "0x9e32ff57334a961f0f18dde4a93f9ec2d0e13430d91d1cf5b8ccf30a2724281a",
          "transactionIndex": "0x3f",
          "logIndex": "0x1c9",
          "removed": false
        },
        {
          "address": "0x0000000000000000000000000000000000001010",
          "topics": [
            "0x4dfe1bbbcf077ddc3e01291eea2d5c70c2b422b415d95645b9adcfd678cb1d63",
            "0x0000000000000000000000000000000000000000000000000000000000001010",
            "0x0000000000000000000000001f9dfe3f894fb27da202ffe50a08658c73859230",
            "0x000000000000000000000000a8b52f02108aa5f4b675bdcc973760022d7c6020"
          ],
          "data": "0x00000000000000000000000000000000000000000000000000102b939fb15f80000000000000000000000000000000000000000000000000371d13d94714c10c000000000000000000000000000000000000000000000085de3c54572a766452000000000000000000000000000000000000000000000000370ce845a763618c000000000000000000000000000000000000000000000085de4c7feaca27c3d2",
          "blockHash": "0xf6c3dc7b46cd3313d688044dfbf5f1d4c9d827c2603d408740bd7e4f42fcc036",
          "blockNumber": "0x49ba494",
          "transactionHash": "0x9e32ff57334a961f0f18dde4a93f9ec2d0e13430d91d1cf5b8ccf30a2724281a",
          "transactionIndex": "0x3f",
          "logIndex": "0x1ca",
          "removed": false
        }
      ],
      "logsBloom": "0x00000000100000000000000000000000000000000000000000000000000000000000000000000000000000000002000000008000000000000000000000000000000000000040000000000000000000800000000000000000000100000000000000000000000000000000000000400000000000000000000080000000040000000004000000000000000000800000200000000100000000050000100200000000200000000000004000000000000000000000000000000000000000000000004000000000000000002081000000000000000000000004000000100000000000000000000000000000000000000000000000000000000000000000000000100000",
      "type": "0x2",
      "transactionHash": "0x9e32ff57334a961f0f18dde4a93f9ec2d0e13430d91d1cf5b8ccf30a2724281a",
      "transactionIndex": "0x3f",
      "blockHash": "0xf6c3dc7b46cd3313d688044dfbf5f1d4c9d827c2603d408740bd7e4f42fcc036",
      "blockNumber": "0x49ba494",
      "gasUsed": "0x24720",
      "effectiveGasPrice": "0xa96c65893",
      "from": "0x1f9dfe3f894fb27da202ffe50a08658c73859230",
      "to": "0xa36c64f351f5e6a94401923b8d1af4c6db967fa6",
      "contractAddress": null
    }
  ],
  "libraries": [],
  "pending": [],
  "returns": {},
  "timestamp": 1759708677,
  "chain": 137,
  "commit": "ac8d7f9"
}