{
  "transactions": [
    {
      "hash": "0x4723038011dc0f38fa573354fe4ad195a47b33dc4e5460cd756a32b09c2dba32",
      "transactionType": "CALL",
      "contractName": null,
      "contractAddress": "0xa36c64f351f5e6a94401923b8d1af4c6db967fa6",
      "function": "openMarket(address,uint64,uint96,string)",
      "arguments": [
        "0x3c499c542cEF5E3811e1192ce70d8cC03d5c3359",
        "1766520900",
        "200",
        "bp://2025-12-23-fabi-vs-lucho-futboltenis-1715"
      ],
      "transaction": {
        "from": "0x1f9dfe3f894fb27da202ffe50a08658c73859230",
        "to": "0xa36c64f351f5e6a94401923b8d1af4c6db967fa6",
        "gas": "0x32627",
        "value": "0x0",
        "input": "0xa468ed5e0000000000000000000000003c499c542cef5e3811e1192ce70d8cc03d5c335900000000000000000000000000000000000000000000000000000000694af84400000000000000000000000000000000000000000000000000000000000000c80000000000000000000000000000000000000000000000000000000000000080000000000000000000000000000000000000000000000000000000000000002e62703a2f2f323032352d31322d32332d666162692d76732d6c7563686f2d667574626f6c74656e69732d31373135000000000000000000000000000000000000",
        "nonce": "0x1a",
        "chainId": "0x89"
      },
      "additionalContracts": [],
      "isFixedGasLimit": false
    }
  ],
  "receipts": [
    {
      "status": "0x1",
      "cumulativeGasUsed": "0xcde04a",
      "logs": [
        {
          "address": "0xa36c64f351f5e6a94401923b8d1af4c6db967fa6",
          "topics": [
            "0xd777c7c12d1bd041d6a7622856a576460f479b1fad9bfeaa1f55b92ee6a0c2c4",
            "0x0000000000000000000000000000000000000000000000000000000000000017",
            "0x0000000000000000000000003c499c542cef5e3811e1192ce70d8cc03d5c3359"
          ],
          "data": "0x00000000000000000000000000000000000000000000000000000000694af84400000000000000000000000000000000000000000000000000000000000000c80000000000000000000000000000000000000000000000000000000000000060000000000000000000000000000000000000000000000000000000000000002e62703a2f2f323032352d31322d32332d666162692d76732d6c7563686f2d667574626f6c74656e69732d31373135000000000000000000000000000000000000",
          "blockHash": "0xd002bff99a5c60d276d0847f07795bd72eec8d5b2a955439269e03882d69a8db",
          "blockNumber": "0x4cf631a",
          "blockTimestamp": "0x694af33f",
          "transactionHash": "0x4723038011dc0f38fa573354fe4ad195a47b33dc4e5460cd756a32b09c2dba32",
          "transactionIndex": "0x3a",
          "logIndex": "0x1fa",
          "removed": false
        },
        {
          "address": "0x0000000000000000000000000000000000001010",
          "topics": [
            "0x4dfe1bbbcf077ddc3e01291eea2d5c70c2b422b415d95645b9adcfd678cb1d63",
            "0x0000000000000000000000000000000000000000000000000000000000001010",
            "0x0000000000000000000000001f9dfe3f894fb27da202ffe50a08658c73859230",
            "0x0000000000000000000000007ee41d8a25641000661b1ef5e6ae8a00400466b0"
          ],
          "data": "0x00000000000000000000000000000000000000000000000000129421397b3800000000000000000000000000000000000000000000000000281554ea6cd12bb4000000000000000000000000000000000000000000034cc5dc1e11f274b2266d0000000000000000000000000000000000000000000000002802c0c93355f3b4000000000000000000000000000000000000000000034cc5dc30a613ae2d5e6d",
          "blockHash": "0xd002bff99a5c60d276d0847f07795bd72eec8d5b2a955439269e03882d69a8db",
          "blockNumber": "0x4cf631a",
          "blockTimestamp": "0x694af33f",
          "transactionHash": "0x4723038011dc0f38fa573354fe4ad195a47b33dc4e5460cd756a32b09c2dba32",
          "transactionIndex": "0x3a",
          "logIndex": "0x1fb",
          "removed": false
        }
      ],
      "logsBloom": "0x00000000000000000000000000000000000000000000000000000000000000000000000000000000000000000000000000009000000000000000001000000000000000000040000000000000000000800000000000000000000100000000000000000000000000000000000000400000000000000000000080000000000000000004000000000000020000800400200000000000000000010000100200000000200000000000000000000000000000000000000000000000000000000000004000000000000000002081000000000000000000400004000000100000000000000000000000000000000000000000000000000000000000000000000000180000",
      "type": "0x2",
      "transactionHash": "0x4723038011dc0f38fa573354fe4ad195a47b33dc4e5460cd756a32b09c2dba32",
      "transactionIndex": "0x3a",
      "blockHash": "0xd002bff99a5c60d276d0847f07795bd72eec8d5b2a955439269e03882d69a8db",
      "blockNumber": "0x4cf631a",
      "gasUsed": "0x247a4",
      "effectiveGasPrice": "0x82b421ce7",
      "from": "0x1f9dfe3f894fb27da202ffe50a08658c73859230",
      "to": "0xa36c64f351f5e6a94401923b8d1af4c6db967fa6",
      "contractAddress": null
    }
  ],
  "libraries": [],
  "pending": [],
  "returns": {},
  "timestamp": 1766519617190,
  "chain": 137,
  "commit": "2eb26a1"
}