{
  "transactions": [
    {
      "hash": "0xa625c85bbb5cf765d98f0c54ac7b413fb944936b5ec63aa07a56f1cc9da8b667",
      "transactionType": "CALL",
      "contractName": null,
      "contractAddress": "0xa36c64f351f5e6a94401923b8d1af4c6db967fa6",
      "function": "openMarket(address,uint64,uint96,string)",
      "arguments": [
        "0x3c499c542cEF5E3811e1192ce70d8cC03d5c3359",
        "1769208300",
        "200",
        "https://tu-dominio.com/metadata/2026-01-23-independiente-vs-estudiantes.json"
      ],
      "transaction": {
        "from": "0x1f9dfe3f894fb27da202ffe50a08658c73859230",
        "to": "0xa36c64f351f5e6a94401923b8d1af4c6db967fa6",
        "gas": "0x3a1f2",
        "value": "0x0",
        "input": "0xa468ed5e0000000000000000000000003c499c542cef5e3811e1192ce70d8cc03d5c3359000000000000000000000000000000000000000000000000000000006973f9ec00000000000000000000000000000000000000000000000000000000000000c80000000000000000000000000000000000000000000000000000000000000080000000000000000000000000000000000000000000000000000000000000004c68747470733a2f2f74752d646f6d696e696f2e636f6d2f6d657461646174612f323032362d30312d32332d696e646570656e6469656e74652d76732d657374756469616e7465732e6a736f6e0000000000000000000000000000000000000000",
        "nonce": "0x20",
        "chainId": "0x89"
      },
      "additionalContracts": [],
      "isFixedGasLimit": false
    },
    {
      "hash": null,
      "transactionType": "CALL",
      "contractName": null,
      "contractAddress": "0xa36c64f351f5e6a94401923b8d1af4c6db967fa6",
      "function": "openMarket(address,uint64,uint96,string)",
      "arguments": [
        "0x3c499c542cEF5E3811e1192ce70d8cC03d5c3359",
        "1769216400",
        "200",
        "https://tu-dominio.com/metadata/2026-01-23-talleres-vs-newells.json"
      ],
      "transaction": {
        "from": "0x1f9dfe3f894fb27da202ffe50a08658c73859230",
        "to": "0xa36c64f351f5e6a94401923b8d1af4c6db967fa6",
        "gas": "0x3a15c",
        "value": "0x0",
        "input": "0xa468ed5e0000000000000000000000003c499c542cef5e3811e1192ce70d8cc03d5c3359000000000000000000000000000000000000000000000000000000006974199000000000000000000000000000000000000000000000000000000000000000c80000000000000000000000000000000000000000000000000000000000000080000000000000000000000000000000000000000000000000000000000000004368747470733a2f2f74752d646f6d696e696f2e636f6d2f6d657461646174612f323032362d30312d32332d74616c6c657265732d76732d6e6577656c6c732e6a736f6e0000000000000000000000000000000000000000000000000000000000",
        "nonce": "0x21",
        "chainId": "0x89"
      },
      "additionalContracts": [],
      "isFixedGasLimit": false
    },
    {
      "hash": null,
      "transactionType": "CALL",
      "contractName": null,
      "contractAddress": "0xa36c64f351f5e6a94401923b8d1af4c6db967fa6",
      "function": "openMarket(address,uint64,uint96,string)",
      "arguments": [
        "0x3c499c542cEF5E3811e1192ce70d8cC03d5c3359",
        "1769292900",
        "200",
        "https://tu-dominio.com/metadata/2026-01-24-gimnasia-lp-vs-racing.json"
      ],
      "transaction": {
        "from": "0x1f9dfe3f894fb27da202ffe50a08658c73859230",
        "to": "0xa36c64f351f5e6a94401923b8d1af4c6db967fa6",
        "gas": "0x3a17e",
        "value": "0x0",
        "input": "0xa468ed5e0000000000000000000000003c499c542cef5e3811e1192ce70d8cc03d5c3359000000000000000000000000000000000000000000000000000000006975446400000000000000000000000000000000000000000000000000000000000000c80000000000000000000000000000000000000000000000000000000000000080000000000000000000000000000000000000000000000000000000000000004568747470733a2f2f74752d646f6d696e696f2e636f6d2f6d657461646174612f323032362d30312d32342d67696d6e617369612d6c702d76732d726163696e672e6a736f6e000000000000000000000000000000000000000000000000000000",
        "nonce": "0x22",
        "chainId": "0x89"
      },
      "additionalContracts": [],
      "isFixedGasLimit": false
    },
    {
      "hash": null,
      "transactionType": "CALL",
      "contractName": null,
      "contractAddress": "0xa36c64f351f5e6a94401923b8d1af4c6db967fa6",
      "function": "openMarket(address,uint64,uint96,string)",
      "arguments": [
        "0x3c499c542cEF5E3811e1192ce70d8cC03d5c3359",
        "1769375700",
        "200",
        "https://tu-dominio.com/metadata/2026-01-25-boca-vs-riestra.json"
      ],
      "transaction": {
        "from": "0x1f9dfe3f894fb27da202ffe50a08658c73859230",
        "to": "0xa36c64f351f5e6a94401923b8d1af4c6db967fa6",
        "gas": "0x32741",
        "value": "0x0",
        "input": "0xa468ed5e0000000000000000000000003c499c542cef5e3811e1192ce70d8cc03d5c335900000000000000000000000000000000000000000000000000000000697687d400000000000000000000000000000000000000000000000000000000000000c80000000000000000000000000000000000000000000000000000000000000080000000000000000000000000000000000000000000000000000000000000003f68747470733a2f2f74752d646f6d696e696f2e636f6d2f6d657461646174612f323032362d30312d32352d626f63612d76732d726965737472612e6a736f6e00",
        "nonce": "0x23",
        "chainId": "0x89"
      },
      "additionalContracts": [],
      "isFixedGasLimit": false
    },
    {
      "hash": null,
      "transactionType": "CALL",
      "contractName": null,
      "contractAddress": "0xa36c64f351f5e6a94401923b8d1af4c6db967fa6",
      "function": "openMarket(address,uint64,uint96,string)",
      "arguments": [
        "0x3c499c542cEF5E3811e1192ce70d8cC03d5c3359",
        "1769283900",
        "200",
        "https://tu-dominio.com/metadata/2026-01-24-barracas-vs-river.json"
      ],
      "transaction": {
        "from": "0x1f9dfe3f894fb27da202ffe50a08658c73859230",
        "to": "0xa36c64f351f5e6a94401923b8d1af4c6db967fa6",
        "gas": "0x3a13c",
        "value": "0x0",
        "input": "0xa468ed5e0000000000000000000000003c499c542cef5e3811e1192ce70d8cc03d5c3359000000000000000000000000000000000000000000000000000000006975213c00000000000000000000000000000000000000000000000000000000000000c80000000000000000000000000000000000000000000000000000000000000080000000000000000000000000000000000000000000000000000000000000004168747470733a2f2f74752d646f6d696e696f2e636f6d2f6d657461646174612f323032362d30312d32342d62617272616361732d76732d72697665722e6a736f6e00000000000000000000000000000000000000000000000000000000000000",
        "nonce": "0x24",
        "chainId": "0x89"
      },
      "additionalContracts": [],
      "isFixedGasLimit": false
    }
  ],
  "receipts": [],
  "libraries": [],
  "pending": [
    "0xa625c85bbb5cf765d98f0c54ac7b413fb944936b5ec63aa07a56f1cc9da8b667"
  ],
  "returns": {},
  "timestamp": 1769013531548,
  "chain": 137,
  "commit": "329ac8c"
}