{
  "transactions": [
    {
      "hash": "0x5813702a3fda7da0170036a357a9648a9a8147c6236b5ada73345ae3ce850f52",
      "transactionType": "CALL",
      "contractName": null,
      "contractAddress": "0xa36c64f351f5e6a94401923b8d1af4c6db967fa6",
      "function": "openMarket(address,uint64,uint96,string)",
      "arguments": [
        "0x3c499c542cEF5E3811e1192ce70d8cC03d5c3359",
        "1769208300",
        "200",
        "https://tu-dominio.com/metadata/2026-01-23-independiente-vs-estudiantes.json"
      ],
      "transaction": {
        "from": "0x1f9dfe3f894fb27da202ffe50a08658c73859230",
        "to": "0xa36c64f351f5e6a94401923b8d1af4c6db967fa6",
        "gas": "0x3a1f2",
        "value": "0x0",
        "input": "0xa468ed5e0000000000000000000000003c499c542cef5e3811e1192ce70d8cc03d5c3359000000000000000000000000000000000000000000000000000000006973f9ec00000000000000000000000000000000000000000000000000000000000000c80000000000000000000000000000000000000000000000000000000000000080000000000000000000000000000000000000000000000000000000000000004c68747470733a2f2f74752d646f6d696e696f2e636f6d2f6d657461646174612f323032362d30312d32332d696e646570656e6469656e74652d76732d657374756469616e7465732e6a736f6e0000000000000000000000000000000000000000",
        "nonce": "0x20",
        "chainId": "0x89"
      },
      "additionalContracts": [],
      "isFixedGasLimit": false
    },
    {
      "hash": "0x1646c426065d3d251f31e65dd8d1f0e8bef399c48a2017b338d4762241754047",
      "transactionType": "CALL",
      "contractName": null,
      "contractAddress": "0xa36c64f351f5e6a94401923b8d1af4c6db967fa6",
      "function": "openMarket(address,uint64,uint96,string)",
      "arguments": [
        "0x3c499c542cEF5E3811e1192ce70d8cC03d5c3359",
        "1769216400",
        "200",
        "https://tu-dominio.com/metadata/2026-01-23-talleres-vs-newells.json"
      ],
      "transaction": {
        "from": "0x1f9dfe3f894fb27da202ffe50a08658c73859230",
        "to": "0xa36c64f351f5e6a94401923b8d1af4c6db967fa6",
        "gas": "0x3a15c",
        "value": "0x0",
        "input": "0xa468ed5e0000000000000000000000003c499c542cef5e3811e1192ce70d8cc03d5c3359000000000000000000000000000000000000000000000000000000006974199000000000000000000000000000000000000000000000000000000000000000c80000000000000000000000000000000000000000000000000000000000000080000000000000000000000000000000000000000000000000000000000000004368747470733a2f2f74752d646f6d696e696f2e636f6d2f6d657461646174612f323032362d30312d32332d74616c6c657265732d76732d6e6577656c6c732e6a736f6e0000000000000000000000000000000000000000000000000000000000",
        "nonce": "0x21",
        "chainId": "0x89"
      },
      "additionalContracts": [],
      "isFixedGasLimit": false
    },
    {
      "hash": "0x0cc8d486c63978cfcde12e2cec5df124f132c2b7e6c6643ae879dc3bd9047249",
      "transactionType": "CALL",
      "contractName": null,
      "contractAddress": "0xa36c64f351f5e6a94401923b8d1af4c6db967fa6",
      "function": "openMarket(address,uint64,uint96,string)",
      "arguments": [
        "0x3c499c542cEF5E3811e1192ce70d8cC03d5c3359",
        "1769292900",
        "200",
        "https://tu-dominio.com/metadata/2026-01-24-gimnasia-lp-vs-racing.json"
      ],
      "transaction": {
        "from": "0x1f9dfe3f894fb27da202ffe50a08658c73859230",
        "to": "0xa36c64f351f5e6a94401923b8d1af4c6db967fa6",
        "gas": "0x3a17e",
        "value": "0x0",
        "input": "0xa468ed5e0000000000000000000000003c499c542cef5e3811e1192ce70d8cc03d5c3359000000000000000000000000000000000000000000000000000000006975446400000000000000000000000000000000000000000000000000000000000000c80000000000000000000000000000000000000000000000000000000000000080000000000000000000000000000000000000000000000000000000000000004568747470733a2f2f74752d646f6d696e696f2e636f6d2f6d657461646174612f323032362d30312d32342d67696d6e617369612d6c702d76732d726163696e672e6a736f6e000000000000000000000000000000000000000000000000000000",
        "nonce": "0x22",
        "chainId": "0x89"
      },
      "additionalContracts": [],
      "isFixedGasLimit": false
    },
    {
      "hash": "0x886ef86c39ff98620bdcf059f3bf96e5e4cb272cbd973b01df5eae1144c082f1",
      "transactionType": "CALL",
      "contractName": null,
      "contractAddress": "0xa36c64f351f5e6a94401923b8d1af4c6db967fa6",
      "function": "openMarket(address,uint64,uint96,string)",
      "arguments": [
        "0x3c499c542cEF5E3811e1192ce70d8cC03d5c3359",
        "1769375700",
        "200",
        "https://tu-dominio.com/metadata/2026-01-25-boca-vs-riestra.json"
      ],
      "transaction": {
        "from": "0x1f9dfe3f894fb27da202ffe50a08658c73859230",
        "to": "0xa36c64f351f5e6a94401923b8d1af4c6db967fa6",
        "gas": "0x32741",
        "value": "0x0",
        "input": "0xa468ed5e0000000000000000000000003c499c542cef5e3811e1192ce70d8cc03d5c335900000000000000000000000000000000000000000000000000000000697687d400000000000000000000000000000000000000000000000000000000000000c80000000000000000000000000000000000000000000000000000000000000080000000000000000000000000000000000000000000000000000000000000003f68747470733a2f2f74752d646f6d696e696f2e636f6d2f6d657461646174612f323032362d30312d32352d626f63612d76732d726965737472612e6a736f6e00",
        "nonce": "0x23",
        "chainId": "0x89"
      },
      "additionalContracts": [],
      "isFixedGasLimit": false
    },
    {
      "hash": "0x84551f16ae6390d5c90553ade9c311bb27add00b8f1685914690ff5356541d89",
      "transactionType": "CALL",
      "contractName": null,
      "contractAddress": "0xa36c64f351f5e6a94401923b8d1af4c6db967fa6",
      "function": "openMarket(address,uint64,uint96,string)",
      "arguments": [
        "0x3c499c542cEF5E3811e1192ce70d8cC03d5c3359",
        "1769283900",
        "200",
        "https://tu-dominio.com/metadata/2026-01-24-barracas-vs-river.json"
      ],
      "transaction": {
        "from": "0x1f9dfe3f894fb27da202ffe50a08658c73859230",
        "to": "0xa36c64f351f5e6a94401923b8d1af4c6db967fa6",
        "gas": "0x3a13c",
        "value": "0x0",
        "input": "0xa468ed5e0000000000000000000000003c499c542cef5e3811e1192ce70d8cc03d5c3359000000000000000000000000000000000000000000000000000000006975213c00000000000000000000000000000000000000000000000000000000000000c80000000000000000000000000000000000000000000000000000000000000080000000000000000000000000000000000000000000000000000000000000004168747470733a2f2f74752d646f6d696e696f2e636f6d2f6d657461646174612f323032362d30312d32342d62617272616361732d76732d72697665722e6a736f6e00000000000000000000000000000000000000000000000000000000000000",
        "nonce": "0x24",
        "chainId": "0x89"
      },
      "additionalContracts": [],
      "isFixedGasLimit": false
    }
  ],
  "receipts": [
    {
      "status": "0x1",
      "cumulativeGasUsed": "0xd9aa26",
      "logs": [
        {
          "address": "0xa36c64f351f5e6a94401923b8d1af4c6db967fa6",
          "topics": [
            "0xd777c7c12d1bd041d6a7622856a576460f479b1fad9bfeaa1f55b92ee6a0c2c4",
            "0x000000000000000000000000000000000000000000000000000000000000001a",
            "0x0000000000000000000000003c499c542cef5e3811e1192ce70d8cc03d5c3359"
          ],
          "data": "0x000000000000000000000000000000000000000000000000000000006973f9ec00000000000000000000000000000000000000000000000000000000000000c80000000000000000000000000000000000000000000000000000000000000060000000000000000000000000000000000000000000000000000000000000004c68747470733a2f2f74752d646f6d696e696f2e636f6d2f6d657461646174612f323032362d30312d32332d696e646570656e6469656e74652d76732d657374756469616e7465732e6a736f6e0000000000000000000000000000000000000000",
          "blockHash": "0xe31fc97f4508fcf3ef470a7de700cb713509a9528ca86d2050cc116a66f40da2",
          "blockNumber": "0x4e2739e",
          "blockTimestamp": "0x69711720",
          "transactionHash": "0x5813702a3fda7da0170036a357a9648a9a8147c6236b5ada73345ae3ce850f52",
          "transactionIndex": "0x41",
          "logIndex": "0x25f",
          "removed": false
        },
        {
          "address": "0x0000000000000000000000000000000000001010",
          "topics": [
            "0x4dfe1bbbcf077ddc3e01291eea2d5c70c2b422b415d95645b9adcfd678cb1d63",
            "0x0000000000000000000000000000000000000000000000000000000000001010",
            "0x0000000000000000000000001f9dfe3f894fb27da202ffe50a08658c73859230",
            "0x0000000000000000000000007ee41d8a25641000661b1ef5e6ae8a00400466b0"
          ],
          "data": "0x0000000000000000000000000000000000000000000000000010886f7a2eb8000000000000000000000000000000000000000000000000001f529b5677b4c53e00000000000000000000000000000000000000000003e3bc36317ecc3c29e6730000000000000000000000000000000000000000000000001f4212e6fd860d3e00000000000000000000000000000000000000000003e3bc3642073bb6589e73",
          "blockHash": "0xe31fc97f4508fcf3ef470a7de700cb713509a9528ca86d2050cc116a66f40da2",
          "blockNumber": "0x4e2739e",
          "blockTimestamp": "0x69711720",
          "transactionHash": "0x5813702a3fda7da0170036a357a9648a9a8147c6236b5ada73345ae3ce850f52",
          "transactionIndex": "0x41",
          "logIndex": "0x260",
          "removed": false
        }
      ],
      "logsBloom": "0x00000000000000000000000000000000000000000000000000000000000000000000000000000000000000000000000000008000000000000000000000000000000000000040000000000000000000801000000000000000000100001000000000000000000000000000000000400000000000000000000080000000000000000004000000000000020000800400200000000000000000010000100200000000200000000000000000000000000000000000000000000000000000000000004000000000000000002081000000000000000000400004000000100000000000000000000000000000000000000000000000000000000004000000000000100000",
      "type": "0x2",
      "transactionHash": "0x5813702a3fda7da0170036a357a9648a9a8147c6236b5ada73345ae3ce850f52",
      "transactionIndex": "0x41",
      "blockHash": "0xe31fc97f4508fcf3ef470a7de700cb713509a9528ca86d2050cc116a66f40da2",
      "blockNumber": "0x4e2739e",
      "gasUsed": "0x2a144",
      "effectiveGasPrice": "0x7458a69101",
      "from": "0x1f9dfe3f894fb27da202ffe50a08658c73859230",
      "to": "0xa36c64f351f5e6a94401923b8d1af4c6db967fa6",
      "contractAddress": null
    },
    {
      "status": "0x1",
      "cumulativeGasUsed": "0x208e492",
      "logs": [
        {
          "address": "0xa36c64f351f5e6a94401923b8d1af4c6db967fa6",
          "topics": [
            "0xd777c7c12d1bd041d6a7622856a576460f479b1fad9bfeaa1f55b92ee6a0c2c4",
            "0x000000000000000000000000000000000000000000000000000000000000001b",
            "0x0000000000000000000000003c499c542cef5e3811e1192ce70d8cc03d5c3359"
          ],
          "data": "0x000000000000000000000000000000000000000000000000000000006974199000000000000000000000000000000000000000000000000000000000000000c80000000000000000000000000000000000000000000000000000000000000060000000000000000000000000000000000000000000000000000000000000004368747470733a2f2f74752d646f6d696e696f2e636f6d2f6d657461646174612f323032362d30312d32332d74616c6c657265732d76732d6e6577656c6c732e6a736f6e0000000000000000000000000000000000000000000000000000000000",
          "blockHash": "0xe31fc97f4508fcf3ef470a7de700cb713509a9528ca86d2050cc116a66f40da2",
          "blockNumber": "0x4e2739e",
          "blockTimestamp": "0x69711720",
          "transactionHash": "0x0cc8d486c63978cfcde12e2cec5df124f132c2b7e6c6643ae879dc3bd9047249",
          "transactionIndex": "0x75",
          "logIndex": "0x676",
          "removed": false
        },
        {
          "address": "0x0000000000000000000000000000000000001010",
          "topics": [
            "0x4dfe1bbbcf077ddc3e01291eea2d5c70c2b422b415d95645b9adcfd678cb1d63",
            "0x0000000000000000000000000000000000000000000000000000000000001010",
            "0x0000000000000000000000001f9dfe3f894fb27da202ffe50a08658c73859230",
            "0x0000000000000000000000007ee41d8a25641000661b1ef5e6ae8a00400466b0"
          ],
          "data": "0x000000000000000000000000000000000000000000000000001085c88b09d0000000000000000000000000000000000000000000000000001e209f6108429ffa00000000000000000000000000000000000000000003e3bc3da3ba504c1fb6730000000000000000000000000000000000000000000000001e1019987d38cffa00000000000000000000000000000000000000000003e3bc3db44018d7298673",
          "blockHash": "0xe31fc97f4508fcf3ef470a7de700cb713509a9528ca86d2050cc116a66f40da2",
          "blockNumber": "0x4e2739e",
          "blockTimestamp": "0x69711720",
          "transactionHash": "0x0cc8d486c63978cfcde12e2cec5df124f132c2b7e6c6643ae879dc3bd9047249",
          "transactionIndex": "0x75",
          "logIndex": "0x677",
          "removed": false
        }
      ],
      "logsBloom": "0x00000000000000000000000000000000000000000010000000000000000000000000000000000000000000000000000000008000000000000000000000000000000000000040000000000000000000800000000000000000000100000000000000000000000000000000000000400000000000000000000080000000000000000004000000000000020000800400200000000000000000010000100200000000200000000100000000000000000000000000000000008000000000000000004000000000000000002081000000000000000000400004000000100000000000000000000000000000000000000000000000000000000000000000000000100000",
      "type": "0x2",
      "transactionHash": "0x0cc8d486c63978cfcde12e2cec5df124f132c2b7e6c6643ae879dc3bd9047249",
      "transactionIndex": "0x75",
      "blockHash": "0xe31fc97f4508fcf3ef470a7de700cb713509a9528ca86d2050cc116a66f40da2",
      "blockNumber": "0x4e2739e",
      "gasUsed": "0x2a0d8",
      "effectiveGasPrice": "0x7458a69101",
      "from": "0x1f9dfe3f894fb27da202ffe50a08658c73859230",
      "to": "0xa36c64f351f5e6a94401923b8d1af4c6db967fa6",
      "contractAddress": null
    },
    {
      "status": "0x1",
      "cumulativeGasUsed": "0x21c2052",
      "logs": [
        {
          "address": "0xa36c64f351f5e6a94401923b8d1af4c6db967fa6",
          "topics": [
            "0xd777c7c12d1bd041d6a7622856a576460f479b1fad9bfeaa1f55b92ee6a0c2c4",
            "0x000000000000000000000000000000000000000000000000000000000000001c",
            "0x0000000000000000000000003c499c542cef5e3811e1192ce70d8cc03d5c3359"
          ],
          "data": "0x000000000000000000000000000000000000000000000000000000006975446400000000000000000000000000000000000000000000000000000000000000c80000000000000000000000000000000000000000000000000000000000000060000000000000000000000000000000000000000000000000000000000000004568747470733a2f2f74752d646f6d696e696f2e636f6d2f6d657461646174612f323032362d30312d32342d67696d6e617369612d6c702d76732d726163696e672e6a736f6e000000000000000000000000000000000000000000000000000000",
          "blockHash": "0xe31fc97f4508fcf3ef470a7de700cb713509a9528ca86d2050cc116a66f40da2",
          "blockNumber": "0x4e2739e",
          "blockTimestamp": "0x69711720",
          "transactionHash": "0x886ef86c39ff98620bdcf059f3bf96e5e4cb272cbd973b01df5eae1144c082f1",
          "transactionIndex": "0x79",
          "logIndex": "0x6b3",
          "removed": false
        },
        {
          "address": "0x0000000000000000000000000000000000001010",
          "topics": [
            "0x4dfe1bbbcf077ddc3e01291eea2d5c70c2b422b415d95645b9adcfd678cb1d63",
            "0x0000000000000000000000000000000000000000000000000000000000001010",
            "0x0000000000000000000000001f9dfe3f894fb27da202ffe50a08658c73859230",
            "0x0000000000000000000000007ee41d8a25641000661b1ef5e6ae8a00400466b0"
          ],
          "data": "0x0000000000000000000000000000000000000000000000000010865f6ad920000000000000000000000000000000000000000000000000001ceed480ff15a72200000000000000000000000000000000000000000003e3bc3e1ca28567c4e6730000000000000000000000000000000000000000000000001cde4e21943c872200000000000000000000000000000000000000000003e3bc3e2d28e4d29e0673",
          "blockHash": "0xe31fc97f4508fcf3ef470a7de700cb713509a9528ca86d2050cc116a66f40da2",
          "blockNumber": "0x4e2739e",
          "blockTimestamp": "0x69711720",
          "transactionHash": "0x886ef86c39ff98620bdcf059f3bf96e5e4cb272cbd973b01df5eae1144c082f1",
          "transactionIndex": "0x79",
          "logIndex": "0x6b4",
          "removed": false
        }
      ],
      "logsBloom": "0x00000000000000000000000000000000000000000000000000000000000000000000000000000000000000000000000000008000000000200000000000000000000000000040000000000000000000800000000000000000000100000000000000000000000000000000000000400000000000000000000080000000000000000004000000000000020000800400200200000000000000010000100200000000200000000000000000000002000000000000000000000000000000000000004000000000000000002081000000000000000000400004000000100000000000000000000000000000000000000000000000000000000000000000000000100000",
      "type": "0x2",
      "transactionHash": "0x886ef86c39ff98620bdcf059f3bf96e5e4cb272cbd973b01df5eae1144c082f1",
      "transactionIndex": "0x79",
      "blockHash": "0xe31fc97f4508fcf3ef470a7de700cb713509a9528ca86d2050cc116a66f40da2",
      "blockNumber": "0x4e2739e",
      "gasUsed": "0x2a0f0",
      "effectiveGasPrice": "0x7458a69101",
      "from": "0x1f9dfe3f894fb27da202ffe50a08658c73859230",
      "to": "0xa36c64f351f5e6a94401923b8d1af4c6db967fa6",
      "contractAddress": null
    },
    {
      "status": "0x1",
      "cumulativeGasUsed": "0x26960b5",
      "logs": [
        {
          "address": "0xa36c64f351f5e6a94401923b8d1af4c6db967fa6",
          "topics": [
            "0xd777c7c12d1bd041d6a7622856a576460f479b1fad9bfeaa1f55b92ee6a0c2c4",
            "0x000000000000000000000000000000000000000000000000000000000000001d",
            "0x0000000000000000000000003c499c542cef5e3811e1192ce70d8cc03d5c3359"
          ],
          "data": "0x00000000000000000000000000000000000000000000000000000000697687d400000000000000000000000000000000000000000000000000000000000000c80000000000000000000000000000000000000000000000000000000000000060000000000000000000000000000000000000000000000000000000000000003f68747470733a2f2f74752d646f6d696e696f2e636f6d2f6d657461646174612f323032362d30312d32352d626f63612d76732d726965737472612e6a736f6e00",
          "blockHash": "0x8bd2bb758c3c797ecc46396dd86dafaa0cdcec538ca0d8ead22391abb01de7e7",
          "blockNumber": "0x4e273a0",
          "blockTimestamp": "0x69711724",
          "transactionHash": "0x1646c426065d3d251f31e65dd8d1f0e8bef399c48a2017b338d4762241754047",
          "transactionIndex": "0x7f",
          "logIndex": "0x7e0",
          "removed": false
        },
        {
          "address": "0x0000000000000000000000000000000000001010",
          "topics": [
            "0x4dfe1bbbcf077ddc3e01291eea2d5c70c2b422b415d95645b9adcfd678cb1d63",
            "0x0000000000000000000000000000000000000000000000000000000000001010",
            "0x0000000000000000000000001f9dfe3f894fb27da202ffe50a08658c73859230",
            "0x0000000000000000000000007ee41d8a25641000661b1ef5e6ae8a00400466b0"
          ],
          "data": "0x000000000000000000000000000000000000000000000000000e5a061e6220000000000000000000000000000000000000000000000000001bbcfeb8a64b163200000000000000000000000000000000000000000003e3bc9d7942a6ed09ef2a0000000000000000000000000000000000000000000000001baea4b287e8f63200000000000000000000000000000000000000000003e3bc9d879cad0b6c0f2a",
          "blockHash": "0x8bd2bb758c3c797ecc46396dd86dafaa0cdcec538ca0d8ead22391abb01de7e7",
          "blockNumber": "0x4e273a0",
          "blockTimestamp": "0x69711724",
          "transactionHash": "0x1646c426065d3d251f31e65dd8d1f0e8bef399c48a2017b338d4762241754047",
          "transactionIndex": "0x7f",
          "logIndex": "0x7e1",
          "removed": false
        }
      ],
      "logsBloom": "0x00000080000000000000000000000000000000000000000000000000000000000000000000000000000000000000000000008000000000000000000200000000000000000040000000000000000000800000000000000010000100000000000000000000000000000000000000400000000000000000000080000000000000000004000000000000020000800400200000000000000000010000100200000000200000000000000000000000000000000000000000000000000000000000004000000000000000002081000000000000000000400004000000100000000000000000000000000000000000000000000000000000000000000000000000100000",
      "type": "0x2",
      "transactionHash": "0x1646c426065d3d251f31e65dd8d1f0e8bef399c48a2017b338d4762241754047",
      "transactionIndex": "0x7f",
      "blockHash": "0x8bd2bb758c3c797ecc46396dd86dafaa0cdcec538ca0d8ead22391abb01de7e7",
      "blockNumber": "0x4e273a0",
      "gasUsed": "0x24870",
      "effectiveGasPrice": "0x75f65488c3",
      "from": "0x1f9dfe3f894fb27da202ffe50a08658c73859230",
      "to": "0xa36c64f351f5e6a94401923b8d1af4c6db967fa6",
      "contractAddress": null
    },
    {
      "status": "0x1",
      "cumulativeGasUsed": "0x26c0175",
      "logs": [
        {
          "address": "0xa36c64f351f5e6a94401923b8d1af4c6db967fa6",
          "topics": [
            "0xd777c7c12d1bd041d6a7622856a576460f479b1fad9bfeaa1f55b92ee6a0c2c4",
            "0x000000000000000000000000000000000000000000000000000000000000001e",
            "0x0000000000000000000000003c499c542cef5e3811e1192ce70d8cc03d5c3359"
          ],
          "data": "0x000000000000000000000000000000000000000000000000000000006975213c00000000000000000000000000000000000000000000000000000000000000c80000000000000000000000000000000000000000000000000000000000000060000000000000000000000000000000000000000000000000000000000000004168747470733a2f2f74752d646f6d696e696f2e636f6d2f6d657461646174612f323032362d30312d32342d62617272616361732d76732d72697665722e6a736f6e00000000000000000000000000000000000000000000000000000000000000",
          "blockHash": "0x8bd2bb758c3c797ecc46396dd86dafaa0cdcec538ca0d8ead22391abb01de7e7",
          "blockNumber": "0x4e273a0",
          "blockTimestamp": "0x69711724",
          "transactionHash": "0x84551f16ae6390d5c90553ade9c311bb27add00b8f1685914690ff5356541d89",
          "transactionIndex": "0x80",
          "logIndex": "0x7e2",
          "removed": false
        },
        {
          "address": "0x0000000000000000000000000000000000001010",
          "topics": [
            "0x4dfe1bbbcf077ddc3e01291eea2d5c70c2b422b415d95645b9adcfd678cb1d63",
            "0x0000000000000000000000000000000000000000000000000000000000001010",
            "0x0000000000000000000000001f9dfe3f894fb27da202ffe50a08658c73859230",
            "0x0000000000000000000000007ee41d8a25641000661b1ef5e6ae8a00400466b0"
          ],
          "data": "0x00000000000000000000000000000000000000000000000000108531ab3a80000000000000000000000000000000000000000000000000001aafb12c095268e200000000000000000000000000000000000000000003e3bc9d879cad0b6c0f2a0000000000000000000000000000000000000000000000001a9f2bfa5e17e8e200000000000000000000000000000000000000000003e3bc9d9821deb6a68f2a",
          "blockHash": "0x8bd2bb758c3c797ecc46396dd86dafaa0cdcec538ca0d8ead22391abb01de7e7",
          "blockNumber": "0x4e273a0",
          "blockTimestamp": "0x69711724",
          "transactionHash": "0x84551f16ae6390d5c90553ade9c311bb27add00b8f1685914690ff5356541d89",
          "transactionIndex": "0x80",
          "logIndex": "0x7e3",
          "removed": false
        }
      ],
      "logsBloom": "0x00000000000000000000000000000000000000000000000000000000000000000000000000000000000000000400000000008000000000000000000000000000000000000040008000000000000000800000000000000000000100000000000000000000000000000000000000400000000000000000000080000000000000000004000000000000020000800400200000000000000000010000100200000000200000000000000000000000000000000000000000000000000000000000004000000000000000002081000000000000000000400004000000100000000000000000000000000000080000000000000000000000000000000000000000100000",
      "type": "0x2",
      "transactionHash": "0x84551f16ae6390d5c90553ade9c311bb27add00b8f1685914690ff5356541d89",
      "transactionIndex": "0x80",
      "blockHash": "0x8bd2bb758c3c797ecc46396dd86dafaa0cdcec538ca0d8ead22391abb01de7e7",
      "blockNumber": "0x4e273a0",
      "gasUsed": "0x2a0c0",
      "effectiveGasPrice": "0x75f65488c3",
      "from": "0x1f9dfe3f894fb27da202ffe50a08658c73859230",
      "to": "0xa36c64f351f5e6a94401923b8d1af4c6db967fa6",
      "contractAddress": null
    }
  ],
  "libraries": [],
  "pending": [],
  "returns": {},
  "timestamp": 1769019172995,
  "chain": 137,
  "commit": "329ac8c"
}