{
  "transactions": [
    {
      "hash": "0xf9635f7ad83154f15f869e33101c3ac2ec3b1b72329dd7f4f94048f4eb2bc992",
      "transactionType": "CALL",
      "contractName": null,
      "contractAddress": "0xa36c64f351f5e6a94401923b8d1af4c6db967fa6",
      "function": "openMarket(address,uint64,uint96,string)",
      "arguments": [
        "0x3c499c542cEF5E3811e1192ce70d8cC03d5c3359",
        "1765144500",
        "200",
        "bp://2025-12-07-boca-racing"
      ],
      "transaction": {
        "from": "0x1f9dfe3f894fb27da202ffe50a08658c73859230",
        "to": "0xa36c64f351f5e6a94401923b8d1af4c6db967fa6",
        "gas": "0x23354",
        "value": "0x0",
        "input": "0xa468ed5e0000000000000000000000003c499c542cef5e3811e1192ce70d8cc03d5c3359000000000000000000000000000000000000000000000000000000006935f7b400000000000000000000000000000000000000000000000000000000000000c80000000000000000000000000000000000000000000000000000000000000080000000000000000000000000000000000000000000000000000000000000001b62703a2f2f323032352d31322d30372d626f63612d726163696e670000000000",
        "nonce": "0x11",
        "chainId": "0x89"
      },
      "additionalContracts": [],
      "isFixedGasLimit": false
    },
    {
      "hash": "0xff3ffc663928f33346b5f7a4c262fdec4d9e881e3c4ea8c655d69a3e18ae2c8d",
      "transactionType": "CALL",
      "contractName": null,
      "contractAddress": "0xa36c64f351f5e6a94401923b8d1af4c6db967fa6",
      "function": "openMarket(address,uint64,uint96,string)",
      "arguments": [
        "0x3c499c542cEF5E3811e1192ce70d8cC03d5c3359",
        "1765223700",
        "200",
        "bp://2025-12-08-gimnasia-estudiantes"
      ],
      "transaction": {
        "from": "0x1f9dfe3f894fb27da202ffe50a08658c73859230",
        "to": "0xa36c64f351f5e6a94401923b8d1af4c6db967fa6",
        "gas": "0x32580",
        "value": "0x0",
        "input": "0xa468ed5e0000000000000000000000003c499c542cef5e3811e1192ce70d8cc03d5c33590000000000000000000000000000000000000000000000000000000069372d1400000000000000000000000000000000000000000000000000000000000000c80000000000000000000000000000000000000000000000000000000000000080000000000000000000000000000000000000000000000000000000000000002462703a2f2f323032352d31322d30382d67696d6e617369612d657374756469616e74657300000000000000000000000000000000000000000000000000000000",
        "nonce": "0x12",
        "chainId": "0x89"
      },
      "additionalContracts": [],
      "isFixedGasLimit": false
    }
  ],
  "receipts": [
    {
      "status": "0x1",
      "cumulativeGasUsed": "0x87ea2d",
      "logs": [
        {
          "address": "0xa36c64f351f5e6a94401923b8d1af4c6db967fa6",
          "topics": [
            "0xd777c7c12d1bd041d6a7622856a576460f479b1fad9bfeaa1f55b92ee6a0c2c4",
            "0x0000000000000000000000000000000000000000000000000000000000000011",
            "0x0000000000000000000000003c499c542cef5e3811e1192ce70d8cc03d5c3359"
          ],
          "data": "0x000000000000000000000000000000000000000000000000000000006935f7b400000000000000000000000000000000000000000000000000000000000000c80000000000000000000000000000000000000000000000000000000000000060000000000000000000000000000000000000000000000000000000000000001b62703a2f2f323032352d31322d30372d626f63612d726163696e670000000000",
          "blockHash": "0x92043fd348d76a55ad345355a7b14240fb20b584032a8ee31bd5bb59d01e1f55",
          "blockNumber": "0x4c39e3a",
          "blockTimestamp": "0x69333205",
          "transactionHash": "0xff3ffc663928f33346b5f7a4c262fdec4d9e881e3c4ea8c655d69a3e18ae2c8d",
          "transactionIndex": "0x2a",
          "logIndex": "0x14d",
          "removed": false
        },
        {
          "address": "0x0000000000000000000000000000000000001010",
          "topics": [
            "0x4dfe1bbbcf077ddc3e01291eea2d5c70c2b422b415d95645b9adcfd678cb1d63",
            "0x0000000000000000000000000000000000000000000000000000000000001010",
            "0x0000000000000000000000001f9dfe3f894fb27da202ffe50a08658c73859230",
            "0x0000000000000000000000007ee41d8a25641000661b1ef5e6ae8a00400466b0"
          ],
          "data": "0x000000000000000000000000000000000000000000000000000a86b44f87fc680000000000000000000000000000000000000000000000003704f528ba92e9ac000000000000000000000000000000000000000000021e1d25b65b4e3c985f1200000000000000000000000000000000000000000000000036fa6e746b0aed44000000000000000000000000000000000000000000021e1d25c0e2028c205b7a",
          "blockHash": "0x92043fd348d76a55ad345355a7b14240fb20b584032a8ee31bd5bb59d01e1f55",
          "blockNumber": "0x4c39e3a",
          "blockTimestamp": "0x69333205",
          "transactionHash": "0xff3ffc663928f33346b5f7a4c262fdec4d9e881e3c4ea8c655d69a3e18ae2c8d",
          "transactionIndex": "0x2a",
          "logIndex": "0x14e",
          "removed": false
        }
      ],
      "logsBloom": "0x00000000000000000000000000000000000000000000000000000000000000000000000000000000000000000000000000008000000000000000000000000000000000000040000000000000000000800000000000000000000100000000000000000000000000000000000000400000000000004000000080000000000000000004000000000000020000800400200000000000000000010000100200000000200000000000000000000000000000000000000000000000000000000400004000001000000000002081000000000000000000400004000000100000000000000000000000000000000000000000000000000000000000000000000000100000",
      "type": "0x2",
      "transactionHash": "0xff3ffc663928f33346b5f7a4c262fdec4d9e881e3c4ea8c655d69a3e18ae2c8d",
      "transactionIndex": "0x2a",
      "blockHash": "0x92043fd348d76a55ad345355a7b14240fb20b584032a8ee31bd5bb59d01e1f55",
      "blockNumber": "0x4c39e3a",
      "gasUsed": "0x197d8",
      "effectiveGasPrice": "0x70093f06c",
      "from": "0x1f9dfe3f894fb27da202ffe50a08658c73859230",
      "to": "0xa36c64f351f5e6a94401923b8d1af4c6db967fa6",
      "contractAddress": null
    },
    {
      "status": "0x1",
      "cumulativeGasUsed": "0x8a3159",
      "logs": [
        {
          "address": "0xa36c64f351f5e6a94401923b8d1af4c6db967fa6",
          "topics": [
            "0xd777c7c12d1bd041d6a7622856a576460f479b1fad9bfeaa1f55b92ee6a0c2c4",
            "0x0000000000000000000000000000000000000000000000000000000000000012",
            "0x0000000000000000000000003c499c542cef5e3811e1192ce70d8cc03d5c3359"
          ],
          "data": "0x0000000000000000000000000000000000000000000000000000000069372d1400000000000000000000000000000000000000000000000000000000000000c80000000000000000000000000000000000000000000000000000000000000060000000000000000000000000000000000000000000000000000000000000002462703a2f2f323032352d31322d30382d67696d6e617369612d657374756469616e74657300000000000000000000000000000000000000000000000000000000",
          "blockHash": "0x92043fd348d76a55ad345355a7b14240fb20b584032a8ee31bd5bb59d01e1f55",
          "blockNumber": "0x4c39e3a",
          "blockTimestamp": "0x69333205",
          "transactionHash": "0xf9635f7ad83154f15f869e33101c3ac2ec3b1b72329dd7f4f94048f4eb2bc992",
          "transactionIndex": "0x2b",
          "logIndex": "0x14f",
          "removed": false
        },
        {
          "address": "0x0000000000000000000000000000000000001010",
          "topics": [
            "0x4dfe1bbbcf077ddc3e01291eea2d5c70c2b422b415d95645b9adcfd678cb1d63",
            "0x0000000000000000000000000000000000000000000000000000000000001010",
            "0x0000000000000000000000001f9dfe3f894fb27da202ffe50a08658c73859230",
            "0x0000000000000000000000007ee41d8a25641000661b1ef5e6ae8a00400466b0"
          ],
          "data": "0x000000000000000000000000000000000000000000000000000f0d21c72550f400000000000000000000000000000000000000000000000036f9cd550a845a8c000000000000000000000000000000000000000000021e1d25c0e2028c205b7a00000000000000000000000000000000000000000000000036eac033435f0998000000000000000000000000000000000000000000021e1d25cfef245345ac6e",
          "blockHash": "0x92043fd348d76a55ad345355a7b14240fb20b584032a8ee31bd5bb59d01e1f55",
          "blockNumber": "0x4c39e3a",
          "blockTimestamp": "0x69333205",
          "transactionHash": "0xf9635f7ad83154f15f869e33101c3ac2ec3b1b72329dd7f4f94048f4eb2bc992",
          "transactionIndex": "0x2b",
          "logIndex": "0x150",
          "removed": false
        }
      ],
      "logsBloom": "0x00000000000000000000000000000000000000000000000000000000000000000000000000000000000000000000000000008000000000000000000000000000000000000040000000000000000000800000000000000000000100000000000000000000000000000000000000400000000000000000000080000000000000000004000000000000020000800400240000000000000000010000100200000000200000000000000000000000000000000000000000000040000000000000004000000000000000002481000000000000000000400004000000100000000000000000000000000000000000000000000000000000000000000000000000100000",
      "type": "0x2",
      "transactionHash": "0xf9635f7ad83154f15f869e33101c3ac2ec3b1b72329dd7f4f94048f4eb2bc992",
      "transactionIndex": "0x2b",
      "blockHash": "0x92043fd348d76a55ad345355a7b14240fb20b584032a8ee31bd5bb59d01e1f55",
      "blockNumber": "0x4c39e3a",
      "gasUsed": "0x2472c",
      "effectiveGasPrice": "0x70093f06c",
      "from": "0x1f9dfe3f894fb27da202ffe50a08658c73859230",
      "to": "0xa36c64f351f5e6a94401923b8d1af4c6db967fa6",
      "contractAddress": null
    }
  ],
  "libraries": [],
  "pending": [],
  "returns": {},
  "timestamp": 1764962822433,
  "chain": 137,
  "commit": "83766ae"
}