{
  "transactions": [
    {
      "hash": "0x49d965e0d0327605173006f8275747c1fef70d847c5fa9245b29130e38d74408",
      "transactionType": "CALL",
      "contractName": null,
      "contractAddress": "0xa36c64f351f5e6a94401923b8d1af4c6db967fa6",
      "function": "openMarket(address,uint64,uint96,string)",
      "arguments": [
        "0x3c499c542cEF5E3811e1192ce70d8cC03d5c3359",
        "1766264100",
        "200",
        "bp://2025-12-20-platense-estudiantes-trofeo-campeones"
      ],
      "transaction": {
        "from": "0x1f9dfe3f894fb27da202ffe50a08658c73859230",
        "to": "0xa36c64f351f5e6a94401923b8d1af4c6db967fa6",
        "gas": "0x3269a",
        "value": "0x0",
        "input": "0xa468ed5e0000000000000000000000003c499c542cef5e3811e1192ce70d8cc03d5c33590000000000000000000000000000000000000000000000000000000069470d2400000000000000000000000000000000000000000000000000000000000000c80000000000000000000000000000000000000000000000000000000000000080000000000000000000000000000000000000000000000000000000000000003562703a2f2f323032352d31322d32302d706c6174656e73652d657374756469616e7465732d74726f66656f2d63616d70656f6e65730000000000000000000000",
        "nonce": "0x14",
        "chainId": "0x89"
      },
      "additionalContracts": [],
      "isFixedGasLimit": false
    }
  ],
  "receipts": [
    {
      "status": "0x1",
      "cumulativeGasUsed": "0x24b7410",
      "logs": [
        {
          "address": "0xa36c64f351f5e6a94401923b8d1af4c6db967fa6",
          "topics": [
            "0xd777c7c12d1bd041d6a7622856a576460f479b1fad9bfeaa1f55b92ee6a0c2c4",
            "0x0000000000000000000000000000000000000000000000000000000000000013",
            "0x0000000000000000000000003c499c542cef5e3811e1192ce70d8cc03d5c3359"
          ],
          "data": "0x0000000000000000000000000000000000000000000000000000000069470d2400000000000000000000000000000000000000000000000000000000000000c80000000000000000000000000000000000000000000000000000000000000060000000000000000000000000000000000000000000000000000000000000003562703a2f2f323032352d31322d32302d706c6174656e73652d657374756469616e7465732d74726f66656f2d63616d70656f6e65730000000000000000000000",
          "blockHash": "0x2b403a9f2c05557f3f18c561e78934160b9106e160f3ae7e6a8b5b790de14e98",
          "blockNumber": "0x4cacf91",
          "blockTimestamp": "0x6941a817",
          "transactionHash": "0x49d965e0d0327605173006f8275747c1fef70d847c5fa9245b29130e38d74408",
          "transactionIndex": "0x8c",
          "logIndex": "0x3da",
          "removed": false
        },
        {
          "address": "0x0000000000000000000000000000000000001010",
          "topics": [
            "0x4dfe1bbbcf077ddc3e01291eea2d5c70c2b422b415d95645b9adcfd678cb1d63",
            "0x0000000000000000000000000000000000000000000000000000000000001010",
            "0x0000000000000000000000001f9dfe3f894fb27da202ffe50a08658c73859230",
            "0x0000000000000000000000007ee41d8a25641000661b1ef5e6ae8a00400466b0"
          ],
          "data": "0x000000000000000000000000000000000000000000000000000f7ab1403faf0800000000000000000000000000000000000000000000000029051fe105bfd38400000000000000000000000000000000000000000002e35daf11f006432544ef00000000000000000000000000000000000000000000000028f5a52fc580247c00000000000000000000000000000000000000000002e35daf216ab78364f3f7",
          "blockHash": "0x2b403a9f2c05557f3f18c561e78934160b9106e160f3ae7e6a8b5b790de14e98",
          "blockNumber": "0x4cacf91",
          "blockTimestamp": "0x6941a817",
          "transactionHash": "0x49d965e0d0327605173006f8275747c1fef70d847c5fa9245b29130e38d74408",
          "transactionIndex": "0x8c",
          "logIndex": "0x3db",
          "removed": false
        }
      ],
      "logsBloom": "0x20000000000000000000000000800000000000000000000000000000000000000000000040000000000000000000000000008000000000000000000000000000000000000040000000000000000000800000000000000000000100000000000000000000000000000000000000400000000000000000000080000000000000000004000000000000020000800400200000000000000000010000100200000000200000000000000000000000000000000000000000000000000000000000004000000000000000002081000000000000000000400004000000100000000000000000000000000000000000000000000000000000000000000000000000100000",
      "type": "0x2",
      "transactionHash": "0x49d965e0d0327605173006f8275747c1fef70d847c5fa9245b29130e38d74408",
      "transactionIndex": "0x8c",
      "blockHash": "0x2b403a9f2c05557f3f18c561e78934160b9106e160f3ae7e6a8b5b790de14e98",
      "blockNumber": "0x4cacf91",
      "gasUsed": "0x247f8",
      "effectiveGasPrice": "0xa6edfdda4",
      "from": "0x1f9dfe3f894fb27da202ffe50a08658c73859230",
      "to": "0xa36c64f351f5e6a94401923b8d1af4c6db967fa6",
      "contractAddress": null
    }
  ],
  "libraries": [],
  "pending": [],
  "returns": {},
  "timestamp": 1765910552166,
  "chain": 137,
  "commit": "01634ba"
}