{
  "transactions": [
    {
      "hash": "0xb5fb6b3c830c1a4358783da84e76ab86faf1a4072e4544b7f17a8ee65b41a2d0",
      "transactionType": "CALL",
      "contractName": null,
      "contractAddress": "0xa36c64f351f5e6a94401923b8d1af4c6db967fa6",
      "function": "openMarket(address,uint64,uint96,string)",
      "arguments": [
        "0x3c499c542cEF5E3811e1192ce70d8cC03d5c3359",
        "1766455459",
        "200",
        "bp://test-futboltenis-fabi-lucho-1766453659"
      ],
      "transaction": {
        "from": "0x1f9dfe3f894fb27da202ffe50a08658c73859230",
        "to": "0xa36c64f351f5e6a94401923b8d1af4c6db967fa6",
        "gas": "0x325f5",
        "value": "0x0",
        "input": "0xa468ed5e0000000000000000000000003c499c542cef5e3811e1192ce70d8cc03d5c3359000000000000000000000000000000000000000000000000000000006949f8a300000000000000000000000000000000000000000000000000000000000000c80000000000000000000000000000000000000000000000000000000000000080000000000000000000000000000000000000000000000000000000000000002b62703a2f2f746573742d667574626f6c74656e69732d666162692d6c7563686f2d31373636343533363539000000000000000000000000000000000000000000",
        "nonce": "0x15",
        "chainId": "0x89"
      },
      "additionalContracts": [],
      "isFixedGasLimit": false
    }
  ],
  "receipts": [
    {
      "status": "0x1",
      "cumulativeGasUsed": "0x26028e6",
      "logs": [
        {
          "address": "0xa36c64f351f5e6a94401923b8d1af4c6db967fa6",
          "topics": [
            "0xd777c7c12d1bd041d6a7622856a576460f479b1fad9bfeaa1f55b92ee6a0c2c4",
            "0x0000000000000000000000000000000000000000000000000000000000000014",
            "0x0000000000000000000000003c499c542cef5e3811e1192ce70d8cc03d5c3359"
          ],
          "data": "0x000000000000000000000000000000000000000000000000000000006949f8a300000000000000000000000000000000000000000000000000000000000000c80000000000000000000000000000000000000000000000000000000000000060000000000000000000000000000000000000000000000000000000000000002b62703a2f2f746573742d667574626f6c74656e69732d666162692d6c7563686f2d31373636343533363539000000000000000000000000000000000000000000",
          "blockHash": "0x8e689f5a480ca0d0dedb8a8fdc314b582acf5d1eb385f6ac55feb3d18582b15b",
          "blockNumber": "0x4cee25f",
          "blockTimestamp": "0x6949f1b9",
          "transactionHash": "0xb5fb6b3c830c1a4358783da84e76ab86faf1a4072e4544b7f17a8ee65b41a2d0",
          "transactionIndex": "0xa0",
          "logIndex": "0x5a3",
          "removed": false
        },
        {
          "address": "0x0000000000000000000000000000000000001010",
          "topics": [
            "0x4dfe1bbbcf077ddc3e01291eea2d5c70c2b422b415d95645b9adcfd678cb1d63",
            "0x0000000000000000000000000000000000000000000000000000000000001010",
            "0x0000000000000000000000001f9dfe3f894fb27da202ffe50a08658c73859230",
            "0x0000000000000000000000007ee41d8a25641000661b1ef5e6ae8a00400466b0"
          ],
          "data": "0x0000000000000000000000000000000000000000000000000013e6a0222c800000000000000000000000000000000000000000000000000028ed5345cb20a0a40000000000000000000000000000000000000000000340b5ee3afded823874a000000000000000000000000000000000000000000000000028d96ca5a8f420a40000000000000000000000000000000000000000000340b5ee4ee48da464f4a0",
          "blockHash": "0x8e689f5a480ca0d0dedb8a8fdc314b582acf5d1eb385f6ac55feb3d18582b15b",
          "blockNumber": "0x4cee25f",
          "blockTimestamp": "0x6949f1b9",
          "transactionHash": "0xb5fb6b3c830c1a4358783da84e76ab86faf1a4072e4544b7f17a8ee65b41a2d0",
          "transactionIndex": "0xa0",
          "logIndex": "0x5a4",
          "removed": false
        }
      ],
      "logsBloom": "0x0000000000000000000000000000000000000000000000000000000000000000000000000000000000000000000000000000a000000000000000000000000000000000000040000000000000000000800000000000000000000100000000000000000000000000000000000000400000000000000000000080000000000000000004000000000000020000800400200000000000000400010000100200000000200000000000000020000000000000000000000000000000000000000000004000000000000000002081000000000000000000400004000000100000000000000000000000000000000000000000000000000000000000000000000000100000",
      "type": "0x2",
      "transactionHash": "0xb5fb6b3c830c1a4358783da84e76ab86faf1a4072e4544b7f17a8ee65b41a2d0",
      "transactionIndex": "0xa0",
      "blockHash": "0x8e689f5a480ca0d0dedb8a8fdc314b582acf5d1eb385f6ac55feb3d18582b15b",
      "blockNumber": "0x4cee25f",
      "gasUsed": "0x24780",
      "effectiveGasPrice": "0x26167c7b32",
      "from": "0x1f9dfe3f894fb27da202ffe50a08658c73859230",
      "to": "0xa36c64f351f5e6a94401923b8d1af4c6db967fa6",
      "contractAddress": null
    }
  ],
  "libraries": [],
  "pending": [],
  "returns": {},
  "timestamp": 1766453690576,
  "chain": 137,
  "commit": "2b5f3c5"
}