{
  "transactions": [
    {
      "hash": "0x9a2943d3bae1ad1c6e64e0c4d8bbd0874f744bf69c4b2dca506889374df69ed0",
      "transactionType": "CALL",
      "contractName": null,
      "contractAddress": "0xa36c64f351f5e6a94401923b8d1af4c6db967fa6",
      "function": "openMarket(address,uint64,uint96,string)",
      "arguments": [
        "0x3c499c542cEF5E3811e1192ce70d8cC03d5c3359",
        "1766613300",
        "200",
        "bp://2025-12-24-beexo-vs-builders-1900"
      ],
      "transaction": {
        "from": "0x1f9dfe3f894fb27da202ffe50a08658c73859230",
        "to": "0xa36c64f351f5e6a94401923b8d1af4c6db967fa6",
        "gas": "0x325a2",
        "value": "0x0",
        "input": "0xa468ed5e0000000000000000000000003c499c542cef5e3811e1192ce70d8cc03d5c335900000000000000000000000000000000000000000000000000000000694c613400000000000000000000000000000000000000000000000000000000000000c80000000000000000000000000000000000000000000000000000000000000080000000000000000000000000000000000000000000000000000000000000002662703a2f2f323032352d31322d32342d626565786f2d76732d6275696c646572732d313930300000000000000000000000000000000000000000000000000000",
        "nonce": "0x1e",
        "chainId": "0x89"
      },
      "additionalContracts": [],
      "isFixedGasLimit": false
    }
  ],
  "receipts": [
    {
      "status": "0x1",
      "cumulativeGasUsed": "0x110d5fc",
      "logs": [
        {
          "address": "0xa36c64f351f5e6a94401923b8d1af4c6db967fa6",
          "topics": [
            "0xd777c7c12d1bd041d6a7622856a576460f479b1fad9bfeaa1f55b92ee6a0c2c4",
            "0x0000000000000000000000000000000000000000000000000000000000000018",
            "0x0000000000000000000000003c499c542cef5e3811e1192ce70d8cc03d5c3359"
          ],
          "data": "0x00000000000000000000000000000000000000000000000000000000694c613400000000000000000000000000000000000000000000000000000000000000c80000000000000000000000000000000000000000000000000000000000000060000000000000000000000000000000000000000000000000000000000000002662703a2f2f323032352d31322d32342d626565786f2d76732d6275696c646572732d313930300000000000000000000000000000000000000000000000000000",
          "blockHash": "0x40954d1719741c6d575fb5a98a5d1dac88feb261c6a470626b6d286eac34b459",
          "blockNumber": "0x4cf6a76",
          "transactionHash": "0x9a2943d3bae1ad1c6e64e0c4d8bbd0874f744bf69c4b2dca506889374df69ed0",
          "transactionIndex": "0x49",
          "logIndex": "0x25f",
          "removed": false
        },
        {
          "address": "0x0000000000000000000000000000000000001010",
          "topics": [
            "0x4dfe1bbbcf077ddc3e01291eea2d5c70c2b422b415d95645b9adcfd678cb1d63",
            "0x0000000000000000000000000000000000000000000000000000000000001010",
            "0x0000000000000000000000001f9dfe3f894fb27da202ffe50a08658c73859230",
            "0x0000000000000000000000007ee41d8a25641000661b1ef5e6ae8a00400466b0"
          ],
          "data": "0x00000000000000000000000000000000000000000000000000108cde920548bc0000000000000000000000000000000000000000000000000544d866935735ac000000000000000000000000000000000000000000034d401dfe2a71b38dd22800000000000000000000000000000000000000000000000005344b880151ecf0000000000000000000000000000000000000000000034d401e0eb75045931ae4",
          "blockHash": "0x40954d1719741c6d575fb5a98a5d1dac88feb261c6a470626b6d286eac34b459",
          "blockNumber": "0x4cf6a76",
          "transactionHash": "0x9a2943d3bae1ad1c6e64e0c4d8bbd0874f744bf69c4b2dca506889374df69ed0",
          "transactionIndex": "0x49",
          "logIndex": "0x260",
          "removed": false
        }
      ],
      "logsBloom": "0x00000000000000000000000000000000000000000000000000000000000000000000000000000000000000000000000000008000000000000000000000000000000000000040000000000000000000800040000000000000000100000000000000000000000000000000000000400000000000000000000080000000000000000004000000000000020000800400200000000000000000010000100200000000200000000000000000000000000000000000000000000000000000000000004000100000000000002081000000000000000000400004000020100000000000000000000000000000000000000000000000000000000000000000000000100000",
      "type": "0x2",
      "transactionHash": "0x9a2943d3bae1ad1c6e64e0c4d8bbd0874f744bf69c4b2dca506889374df69ed0",
      "transactionIndex": "0x49",
      "blockHash": "0x40954d1719741c6d575fb5a98a5d1dac88feb261c6a470626b6d286eac34b459",
      "blockNumber": "0x4cf6a76",
      "gasUsed": "0x24744",
      "effectiveGasPrice": "0x743c21125",
      "blobGasUsed": "0x0",
      "from": "0x1f9dfe3f894fb27da202ffe50a08658c73859230",
      "to": "0xa36c64f351f5e6a94401923b8d1af4c6db967fa6",
      "contractAddress": null
    }
  ],
  "libraries": [],
  "pending": [],
  "returns": {},
  "timestamp": 1766523396579,
  "chain": 137,
  "commit": "2eb26a1"
}