{
  "transactions": [
    {
      "hash": "0x7d17b6942ba2a295447d5c8973136e05516e51480ffdd85539f24dd946884210",
      "transactionType": "CALL",
      "contractName": null,
      "contractAddress": "0xa36c64f351f5e6a94401923b8d1af4c6db967fa6",
      "function": "openMarket(address,uint64,uint96,string)",
      "arguments": [
        "0x3c499c542cEF5E3811e1192ce70d8cC03d5c3359",
        "1766511900",
        "200",
        "bp://2025-12-23-fabi-vs-lucho-futboltenis-1445"
      ],
      "transaction": {
        "from": "0x1f9dfe3f894fb27da202ffe50a08658c73859230",
        "to": "0xa36c64f351f5e6a94401923b8d1af4c6db967fa6",
        "gas": "0x32627",
        "value": "0x0",
        "input": "0xa468ed5e0000000000000000000000003c499c542cef5e3811e1192ce70d8cc03d5c335900000000000000000000000000000000000000000000000000000000694ad51c00000000000000000000000000000000000000000000000000000000000000c80000000000000000000000000000000000000000000000000000000000000080000000000000000000000000000000000000000000000000000000000000002e62703a2f2f323032352d31322d32332d666162692d76732d6c7563686f2d667574626f6c74656e69732d31343435000000000000000000000000000000000000",
        "nonce": "0x17",
        "chainId": "0x89"
      },
      "additionalContracts": [],
      "isFixedGasLimit": false
    }
  ],
  "receipts": [
    {
      "status": "0x1",
      "cumulativeGasUsed": "0xc27429",
      "logs": [
        {
          "address": "0xa36c64f351f5e6a94401923b8d1af4c6db967fa6",
          "topics": [
            "0xd777c7c12d1bd041d6a7622856a576460f479b1fad9bfeaa1f55b92ee6a0c2c4",
            "0x0000000000000000000000000000000000000000000000000000000000000016",
            "0x0000000000000000000000003c499c542cef5e3811e1192ce70d8cc03d5c3359"
          ],
          "data": "0x00000000000000000000000000000000000000000000000000000000694ad51c00000000000000000000000000000000000000000000000000000000000000c80000000000000000000000000000000000000000000000000000000000000060000000000000000000000000000000000000000000000000000000000000002e62703a2f2f323032352d31322d32332d666162692d76732d6c7563686f2d667574626f6c74656e69732d31343435000000000000000000000000000000000000",
          "blockHash": "0x84eb3339c30daa72864402d0c6db5682ca8c2fd087c75c72b8ce39ffa9157d13",
          "blockNumber": "0x4cf5122",
          "blockTimestamp": "0x694acf4f",
          "transactionHash": "0x7d17b6942ba2a295447d5c8973136e05516e51480ffdd85539f24dd946884210",
          "transactionIndex": "0x4c",
          "logIndex": "0x25f",
          "removed": false
        },
        {
          "address": "0x0000000000000000000000000000000000001010",
          "topics": [
            "0x4dfe1bbbcf077ddc3e01291eea2d5c70c2b422b415d95645b9adcfd678cb1d63",
            "0x0000000000000000000000000000000000000000000000000000000000001010",
            "0x0000000000000000000000001f9dfe3f894fb27da202ffe50a08658c73859230",
            "0x0000000000000000000000007ee41d8a25641000661b1ef5e6ae8a00400466b0"
          ],
          "data": "0x000000000000000000000000000000000000000000000000001350bfc5346a900000000000000000000000000000000000000000000000002852412f4bf27b74000000000000000000000000000000000000000000034b7bafd8f4f8c2c026b4000000000000000000000000000000000000000000000000283ef06f86be10e4000000000000000000000000000000000000000000034b7bafec45b887f49144",
          "blockHash": "0x84eb3339c30daa72864402d0c6db5682ca8c2fd087c75c72b8ce39ffa9157d13",
          "blockNumber": "0x4cf5122",
          "blockTimestamp": "0x694acf4f",
          "transactionHash": "0x7d17b6942ba2a295447d5c8973136e05516e51480ffdd85539f24dd946884210",
          "transactionIndex": "0x4c",
          "logIndex": "0x260",
          "removed": false
        }
      ],
      "logsBloom": "0x00000000000000000000000000000000000000000000000000000000000000000000000000000000000000000000000000008000000000000000000000000000000000000040000800000000000000800000000000000000000100000000000000000000000000000000000000400000200000000000000080000000000000000004000000000000020000800400200000000000000000010000100200000000200000000000000000000000000000000000000000000000000000000000004000000000000000002081000000000000000000400004000000100000000000000000000000000000000000000000000000000000000000000008000000100000",
      "type": "0x2",
      "transactionHash": "0x7d17b6942ba2a295447d5c8973136e05516e51480ffdd85539f24dd946884210",
      "transactionIndex": "0x4c",
      "blockHash": "0x84eb3339c30daa72864402d0c6db5682ca8c2fd087c75c72b8ce39ffa9157d13",
      "blockNumber": "0x4cf5122",
      "gasUsed": "0x247a4",
      "effectiveGasPrice": "0x166413ae9f",
      "from": "0x1f9dfe3f894fb27da202ffe50a08658c73859230",
      "to": "0xa36c64f351f5e6a94401923b8d1af4c6db967fa6",
      "contractAddress": null
    }
  ],
  "libraries": [],
  "pending": [],
  "returns": {},
  "timestamp": 1766510418752,
  "chain": 137,
  "commit": "639337f"
}