{
  "transactions": [
    {
      "hash": "0x9514cd559f57d0c6cd80fe8581b84574c8886614e57cfcd74b2cdf686d68f642",
      "transactionType": "CALL",
      "contractName": null,
      "contractAddress": "0xa36c64f351f5e6a94401923b8d1af4c6db967fa6",
      "function": "openMarket(address,uint64,uint96,string)",
      "arguments": [
        "0x3c499c542cEF5E3811e1192ce70d8cC03d5c3359",
        "1766494800",
        "200",
        "bp://2025-12-23-fabi-vs-lucho-futboltenis"
      ],
      "transaction": {
        "from": "0x1f9dfe3f894fb27da202ffe50a08658c73859230",
        "to": "0xa36c64f351f5e6a94401923b8d1af4c6db967fa6",
        "gas": "0x325d3",
        "value": "0x0",
        "input": "0xa468ed5e0000000000000000000000003c499c542cef5e3811e1192ce70d8cc03d5c335900000000000000000000000000000000000000000000000000000000694a925000000000000000000000000000000000000000000000000000000000000000c80000000000000000000000000000000000000000000000000000000000000080000000000000000000000000000000000000000000000000000000000000002962703a2f2f323032352d31322d32332d666162692d76732d6c7563686f2d667574626f6c74656e69730000000000000000000000000000000000000000000000",
        "nonce": "0x16",
        "chainId": "0x89"
      },
      "additionalContracts": [],
      "isFixedGasLimit": false
    }
  ],
  "receipts": [
    {
      "status": "0x1",
      "cumulativeGasUsed": "0xcf4e27",
      "logs": [
        {
          "address": "0xa36c64f351f5e6a94401923b8d1af4c6db967fa6",
          "topics": [
            "0xd777c7c12d1bd041d6a7622856a576460f479b1fad9bfeaa1f55b92ee6a0c2c4",
            "0x0000000000000000000000000000000000000000000000000000000000000015",
            "0x0000000000000000000000003c499c542cef5e3811e1192ce70d8cc03d5c3359"
          ],
          "data": "0x00000000000000000000000000000000000000000000000000000000694a925000000000000000000000000000000000000000000000000000000000000000c80000000000000000000000000000000000000000000000000000000000000060000000000000000000000000000000000000000000000000000000000000002962703a2f2f323032352d31322d32332d666162692d76732d6c7563686f2d667574626f6c74656e69730000000000000000000000000000000000000000000000",
          "blockHash": "0x69dda6e387e1fccdc9b34278ecefe27d920a0adc01be5ccfb5385fb1306f306c",
          "blockNumber": "0x4cee3ed",
          "blockTimestamp": "0x6949f4d5",
          "transactionHash": "0x9514cd559f57d0c6cd80fe8581b84574c8886614e57cfcd74b2cdf686d68f642",
          "transactionIndex": "0x64",
          "logIndex": "0x24c",
          "removed": false
        },
        {
          "address": "0x0000000000000000000000000000000000001010",
          "topics": [
            "0x4dfe1bbbcf077ddc3e01291eea2d5c70c2b422b415d95645b9adcfd678cb1d63",
            "0x0000000000000000000000000000000000000000000000000000000000001010",
            "0x0000000000000000000000001f9dfe3f894fb27da202ffe50a08658c73859230",
            "0x0000000000000000000000007ee41d8a25641000661b1ef5e6ae8a00400466b0"
          ],
          "data": "0x0000000000000000000000000000000000000000000000000013e5ce95fe580000000000000000000000000000000000000000000000000028968305105429a40000000000000000000000000000000000000000000340d29f268679056a631d00000000000000000000000000000000000000000000000028829d367a55d1a40000000000000000000000000000000000000000000340d29f3a6c479b68bb1d",
          "blockHash": "0x69dda6e387e1fccdc9b34278ecefe27d920a0adc01be5ccfb5385fb1306f306c",
          "blockNumber": "0x4cee3ed",
          "blockTimestamp": "0x6949f4d5",
          "transactionHash": "0x9514cd559f57d0c6cd80fe8581b84574c8886614e57cfcd74b2cdf686d68f642",
          "transactionIndex": "0x64",
          "logIndex": "0x24d",
          "removed": false
        }
      ],
      "logsBloom": "0x00000000000000000000000000000000000000000000000000000000000000000000000000000000000000000000000000008000000000000000000000000000001000000040000000000000000000800000000000000000000100000000000000000000000000000000000000400000000000000000000080000000000000000004000000000000020000800400200000000000000000010000100200000000200000000000000000000000010000000000000000000000000000000000004000000000000000002081000000000000000000400004000000100000000000002000000000000000000000000000000000000000000000000000000000100000",
      "type": "0x2",
      "transactionHash": "0x9514cd559f57d0c6cd80fe8581b84574c8886614e57cfcd74b2cdf686d68f642",
      "transactionIndex": "0x64",
      "blockHash": "0x69dda6e387e1fccdc9b34278ecefe27d920a0adc01be5ccfb5385fb1306f306c",
      "blockNumber": "0x4cee3ed",
      "gasUsed": "0x24768",
      "effectiveGasPrice": "0x1df38f121e",
      "from": "0x1f9dfe3f894fb27da202ffe50a08658c73859230",
      "to": "0xa36c64f351f5e6a94401923b8d1af4c6db967fa6",
      "contractAddress": null
    }
  ],
  "libraries": [],
  "pending": [],
  "returns": {},
  "timestamp": 1766454487468,
  "chain": 137,
  "commit": "f5d2905"
}